:020000040800F2
:10000000A006002021020008290200082B02000897
:100010002D0200082F020008310200080000000035
:100020000000000000000000000000003302000893
:1000300035020008000000003702000839020008FD
:100040003B0200083B0200083B0200083B0200089C
:100050003B0200083B0200083B0200083B0200088C
:100060003B0200083B0200083B0200083B0200087C
:100070003B0200083B0200083B0200083B0200086C
:100080003B0200083B0200083B0200083B0200085C
:100090003B0200083B0200083B0200083B0200084C
:1000A0003B0200083B0200083B0200083B0200083C
:1000B0003B0200083B0200083B0200083B0200082C
:1000C0003B0200083B0200083B0200083B0200081C
:1000D0003B0200083B0200083B0200083B0200080C
:1000E0003B0200083B0200083B0200083B020008FC
:1000F0003B0200083B0200083B0200083B020008EC
:100100003B0200083B0200083B0200083B020008DB
:100110003B0200083B0200083B0200083B020008CB
:100120003B0200083B0200083B0200083B020008BB
:100130003B0200083B0200083B0200083B020008AB
:100140003B0200083B0200083B0200083B0200089B
:100150003B0200083B0200083B0200083B0200088B
:100160003B0200083B0200083B0200083B0200087B
:100170003B0200083B0200083B0200083B0200086B
:100180003B02000800F002F800F03AF80AA090E8FC
:10019000000C82448344AAF10107DA4501D100F042
:1001A0002FF8AFF2090EBAE80F0013F0010F18BFD5
:1001B000FB1A43F001031847EC2300000C24000055
:1001C000103A24BF78C878C1FAD8520724BF30C883
:1001D00030C144BF04680C60704700000023002455
:1001E00000250026103A28BF78C1FBD8520728BF47
:1001F00030C148BF0B6070471FB51FBD10B510BDA3
:1002000002F095F91146FFF7F7FF00F02EF902F022
:10021000B3F903B4FFF7F2FF03BC02F0BBF900002F
:100220000948804709480047FEE7FEE7FEE7FEE78A
:10023000FEE7FEE7FEE7FEE7FEE7FEE704480549C6
:10024000054A064B7047000021030008850100089D
:10025000A0000020A0060020A0020020A002002094
:100260000CB50020019000906B48006840F480308D
:100270006949086000BF6848006800F400300090D9
:100280000198401C0190009818B90198B0F5A06F32
:10029000F1D16148006800F4003010B101200090F5
:1002A00001E0002000900098012838D15A48083019
:1002B00000685949083108600846006840F4004069
:1002C00008600846006840F4A05008605348091FC1
:1002D0000860081F006840F08070091F086000BFB8
:1002E0004D48006800F000700028F9D040F203701B
:1002F0004B49086048480830006820F00300464930
:10030000083108600846006840F00200086000BF3D
:1003100041480830006800F00C000828F8D10CBDF6
:1003200010B53D48006840F001003B4908600020DE
:10033000394908310860384800683A490840364968
:1003400008603948091D0860081F006820F48020F3
:10035000091F0860002030490C310860FFF780FF5A
:100360004FF000603149086010BD70B500200022D8
:10037000022300240221284D08352D6805F00C00C9
:1003800020B1042806D0082834D107E0284D294E92
:10039000356033E0284D274E35602FE01E4D2D1D72
:1003A0002D68C5F380541C4D2D1D2D6805F03F01AF
:1003B00054B1214DB5FBF1F5174E361D3668C6F325
:1003C000881605FB06F209E0194DB5FBF1F5124E52
:1003D000361D3668C6F3881605FB06F20E4D2D1D38
:1003E0002D68C5F301456D1C6B00B2FBF3F5114E92
:1003F000356003E00E4D0F4E356000BF00BF064D67
:1004000008352D68C5F303150C4E705D094D2D6838
:10041000C540084E356070BD00380240193C4005AB
:10042000003C0240FFFFF6FE1030002408ED00E023
:100430000024F4000000002000127A0004000020D4
:100440000CB5002101910CE00021009102E000991F
:10045000491C00910099B1F57A7FF8D30199491CA4
:10046000019101998142EFD30CBD00F03DF800F0FD
:10047000FBF800F0F9F900F076F900F09FFA152882
:1004800001D1002401E040F6B83428E000F0FDF886
:10049000012810D10421124800F063FDC0F10100D1
:1004A000C6B2324604210E4800F06CFD04F5FA7025
:1004B000FFF7C6FF13E000F0A3F90A48407AA8420C
:1004C0000DD00421064800F04CFDC0F10100C6B279
:1004D00032460421024800F055FD0248457AD5E72E
:1004E00000080240300000201CB50121042000F06B
:1004F0007BFF0420009002208DF8050001208DF87C
:10050000040000208DF8060001208DF807006946E0
:10051000504800F0B7FC04214E4800F02FFD0121A7
:100520000F2000F061FF41F6FF70009001208DF870
:10053000040000208DF8060002208DF805006946B1
:10054000454800F09FFC4FF6E770009001208DF8C1
:10055000040000208DF8060002208DF80500694691
:100560003E4800F08FFC43F6FF70009001208DF8AC
:10057000040000208DF8060002208DF80500694671
:10058000344800F07FFC0420009001208DF8040026
:1005900000208DF8060002208DF8050069463048DD
:1005A00000F070FC2C48406900F460402A49486122
:1005B0002A481430006800F01800284914310860F7
:1005C00024481430006800F4404022491431086087
:1005D0002348143000684FF6FB710840204914315D
:1005E00008601D48406960F460401B4948611B4831
:1005F0001430006860F0180018491431086015487C
:100600001430006860F44040124914310860144806
:1006100014300068134908431149143108601CBDA7
:1006200010B504210B4800F0A9FC10BD10B5042141
:10063000084800F0A5FC10BD10B50421054800F0E5
:1006400090FCC0F10100C4B222460421014800F030
:1006500099FC10BD00080240000002400004024066
:10066000000C02400400FFFF1CB50121022000F035
:10067000BBFE8020009000208DF805008DF804005E
:100680006946074800F0FEFB1CBD10B580210448F8
:1006900000F05AFC08B9012010BD0020FCE7000062
:1006A0000004024010B50121080700F0D0FE01202F
:1006B00000F0B3FC012000F07DFD00BF412000F000
:1006C00032FD0028FAD04FF4807000F067FEFF2062
:1006D000604908607F2060490860012000F079FED1
:1006E00000F0C0FF10BD07B582B000208DF80700F4
:1006F0009DF80F008DF804009DF810008DF805009E
:100700009DF811008DF8060001A9002001F0E6F81F
:1007100010B90120514908709DF80E0018B9072042
:100720008DF8000003E09DF80E008DF800009DF8A4
:100730000D008DF802009DF80C008DF80100029864
:10074000C0B28DF803006946002001F04EF910B9DF
:1007500001204249087005B000BD07B59DE80700BB
:10076000FFF7C1FF0EBD0EB5002001F050FC43F2B3
:10077000F22188422AD0FFF795FF374800680190A0
:1007800034480068029000200090684601F026F886
:1007900020B901203149087000200EBD0C203049DD
:1007A00048720D2008720720C87105208871082042
:1007B000487108710E200860084607C8FFF7CDFF92
:1007C00043F2F221002001F015FC17E07B2000F03D
:1007D000AAFC10B97A2000F0A6FC0121080700F05D
:1007E00036FE012000F019FC00F03CFF4FF4807051
:1007F00001F083FC4FF4003000F0CDFA0120CCE78B
:100800001CB501A9002001F0CBF86946002001F0D9
:1008100052F99DF80600124948729DF805000872C9
:100820009DF80400C8719DF8000088719DF80200D1
:1008300048719DF8010008719DF8030000F5FA6009
:1008400008600846807908B9072088710548006863
:100850001CBD00001C000020180000201400002017
:10086000300000200428004000B587B001210803B3
:1008700000F0FEFD0121084600F0B6FD05221146FC
:10088000F94800F08AFB05220621F74800F085FBB5
:1008900005220721F44800F080FB02208DF81800A3
:1008A0008DF8190000208DF81A0002208DF81B0029
:1008B0002020059005A9EC4800F0E4FA802005907E
:1008C00005A9E94800F0DEFA4020059005A9E648B0
:1008D00000F0D8FA1020059001208DF818000020B3
:1008E0008DF81A0002208DF8190000208DF81B00E9
:1008F00005A9DD4800F0C6FA0020ADF800004FF46D
:100900008270ADF802000020ADF804000220ADF8BE
:1009100006000120ADF808004002ADF80A000020F2
:10092000ADF80C00ADF80E000720ADF810006946D8
:10093000CE4801F04BFC0121CC4801F02AFD07B064
:1009400000BD014600BFC948008900F00200002830
:10095000F9D0C648818100BFC448008900F0010079
:100960000028F9D0C1488089C0B2704710B5102165
:10097000BD4800F005FB10BD10B51021BA4800F0CD
:10098000FDFA10BD10B5FFF7F1FF0620FFF7D9FF04
:10099000FFF7F2FF10BD10B50024FFF7E7FF0520B9
:1009A000FFF7CFFF00BF0020FFF7CBFF044604F0A6
:1009B00001000028F7D1FFF7DFFF10BD10B5FFF7EA
:1009C000D5FFAB20FFF7BDFF0020FFF7BAFF0020E7
:1009D000FFF7B7FF0020FFF7B4FF0020FFF7B1FFDC
:1009E0000446FFF7C9FF204610BD10B50446FFF7C7
:1009F000C9FFFFF7BBFF2020FFF7A3FFC4F30740A9
:100A0000FFF79FFFC4F30720FFF79BFFE0B2FFF75C
:100A100098FFFFF7B1FFFFF7BEFF10BD10B504460A
:100A2000FFF7B0FFFFF7A2FFD820FFF78AFFC4F35C
:100A30000740FFF786FFC4F30720FFF782FFE0B20D
:100A4000FFF77FFFFFF798FFFFF7A5FF10BD10B579
:100A5000FFF798FFFFF78AFFC720FFF772FFFFF746
:100A60008BFFFFF798FF10BD70B504460D46164684
:100A7000FFF788FFFFF77AFF0220FFF762FFC4F35A
:100A80000740FFF75EFFC4F30720FFF75AFFE0B20D
:100A9000FFF757FF03E02878FFF753FF6D1C301E68
:100AA000A6F101018EB2F6D1FFF766FFFFF773FFE3
:100AB00070BD2DE9F84F82460F4614464FF00009ED
:100AC000C846C346002600200090554605F0FF0B9F
:100AD000CBF580762046E11704EB11614FEA21291E
:100AE000E11704EB11610912A4EB0128BBF1000F1F
:100AF00031D1B9F1000F0BD1C5F30B0010B9284665
:100B0000FFF773FF224639462846FFF7ADFF90E016
:100B10000FE0C5F30B0010B92846FFF766FF4FF44E
:100B2000807239462846FFF79FFF05F5807507F567
:100B30008077B9F10000A9F10109EAD1C5F30B00F2
:100B400010B92846FFF751FF1FFA88F239462846A8
:100B5000FFF78AFF6DE0B9F1000F2AD1B0451CD92B
:100B6000A8EB06000090C5F30B0010B92846FFF76C
:100B70003CFFB2B239462846FFF776FF354437448A
:100B8000C5F30B0010B92846FFF72FFF009882B27B
:100B900039462846FFF768FF4BE0C5F30B0010B954
:100BA0002846FFF722FF224639462846FFF75CFF1A
:100BB0003FE0A01B84B22046E11704EB11614FEA2D
:100BC0002129E11704EB11610912A4EB0128C5F3F7
:100BD0000B0010B92846FFF708FFB2B23946284685
:100BE000FFF742FF354437440FE0C5F30B0010B95F
:100BF0002846FFF7FAFE4FF4807239462846FFF781
:100C000033FF05F5807507F58077B9F10000A9F18C
:100C10000109EAD1B8F1000F0BD0C5F30B0010B9F0
:100C20002846FFF7E2FE1FFA88F239462846FFF70A
:100C30001BFFBDE8F88F70B504460D461646FFF75A
:100C400095FE0B20FFF77DFEC4F30740FFF779FE0A
:100C5000C4F30720FFF775FEE0B2FFF772FE002035
:100C6000FFF76FFE09E00000000002400030014085
:100C7000FF20FFF766FE28706D1C301EA6F10101F3
:100C80008EB2F5D1FFF778FE70BD00000020444918
:100C90000860091D0860091D0860091D08604148B9
:100CA0003F4914310860704700213D498279002A8C
:100CB0003AD00A46126803689A430B461A600A1D26
:100CC000126803689A430B1D1A60027911440A687E
:100CD00003681A430A60324A0832126803689A436A
:100CE0002F4B08331A601A1D126803689A432C4B65
:100CF0000C331A604279102A0ED11A1F1268036849
:100D00001A43274B08331A601A1D126803681A43E6
:100D1000234B0C331A600DE02149427911440A68D3
:100D200003681A430A6005E0027911440A680368FF
:100D30009A430A6070470021016001710C214171E2
:100D40000021817170471649103109680143144A26
:100D500010321160704701460020114A14321268A7
:100D60000A400AB1012000E0002070470C4914310C
:100D700008607047014600200022094B1B6803EA07
:100D80000102074B14331B680B4013B10AB1012059
:100D900000E00020704702491431086070470000ED
:100DA000003C0140FFFF7F0010B504468C488442A0
:100DB00008D10121084600F06CFB0021012000F061
:100DC00068FB5EE08748844208D10121022000F0E0
:100DD00060FB0021022000F05CFB52E0824884426C
:100DE00008D10121042000F054FB0021042000F070
:100DF00050FB46E07D48844208D10121082000F0E4
:100E000048FB0021082000F044FB3AE07848844287
:100E100008D10121102000F03CFB0021102000F03F
:100E200038FB2EE07348844208D10121202000F0D5
:100E300030FB0021202000F02CFB22E06E48844291
:100E400008D10121402000F024FB0021402000F0C7
:100E500020FB16E06948844208D10121802000F07F
:100E600018FB0021802000F014FB0AE06448844253
:100E700007D10121801500F00CFB0021A01500F026
:100E800008FB10BDF0B50A4600210023002400BF76
:100E90003DE0012505FA01F3156805EA03049C42CB
:100EA00034D105684F000326BE40B543056015796F
:100EB0004E00B5400668354305601579012D02D016
:100EC0001579022D16D185684F000326BE40B54323
:100ED000856055794E00B540866835438560456824
:100EE00001268E40B5434560456896798E40B6B27E
:100EF00035434560C5684F000326BE40B543C56015
:100F0000D5794E00B540C6683543C560491C1029E7
:100F1000BFD3F0BD4FF6FF71016000210171417137
:100F20008171C171704708B54FF480320092009A08
:100F30000A430092009AC261C161009AC261C2690B
:100F40000092C269009208BD0246002013690B405E
:100F50000BB1012000E0002070470146086980B213
:100F600070470246002053690B400BB1012000E09E
:100F7000002070470146486980B27047018370477E
:100F8000418370470AB1018300E0418370474161AA
:100F9000704742694A4042617047F0B5002300241F
:100FA0004D07ED0E02FA05F3CE1000F1200555F8BD
:100FB00026504E07F70E0F26BE40B543CF1000F166
:100FC000200646F82750CE1000F1200555F826508F
:100FD00045EA0304CE1000F1200545F82640F0BD97
:100FE000000002400004024000080240000C0240E1
:100FF000001002400014024000180240001C024091
:101000000020024010B50121080700F088FA0021F5
:101010004FF0805000F083FA10BD2D4908627047F0
:10102000014600202B4A106820F0E00008431060C1
:1010300070472749086170472549A031086070470B
:101040002349A4310860704721494862704710B5B0
:10105000024600201F4B186820F003001043186060
:101060001D4B1B6843F004031B4C2360012901D175
:1010700030BF00E020BF184B1B6823F00403164C60
:10108000236010BD1348006840F004001149086057
:101090000846006840F0020008600F48006840F011
:1010A00004000D49086000BF00BF30BF7047014613
:1010B0000020084A52680A400AB1012000E00020DE
:1010C00070470449096841EA8001024A116070478B
:1010D00000000E420070004010ED00E0FA48006889
:1010E00040F00100F84908600020F7490831086025
:1010F000F5480068F5490840F3490860F448091DBF
:101100000860081F006820F48020091F0860002084
:10111000ED490C31086070470021EB4A921C1170B8
:1011200011460870704710B50146002200230020C8
:101130004A11012A02D1E44C236808E0022A03D1B3
:10114000E14C7034236802E0DF4C7434236801F012
:101150001F02012494401C400CB1012000E000203B
:1011600010BD38B5002000900024002500BF3120BC
:10117000FFF7D9FF05460098401C00900098B0F595
:10118000A06F01D0002DF2D03120FFF7CCFF08B1C5
:10119000012400E00024204638BD01460020CA4A50
:1011A000106820F0F80040EAC10010607047C9499B
:1011B000086070470021C44A703211701170012814
:1011C00002D004280AD104E00121BF4A7032117014
:1011D00005E00521BC4A7032117000E000BF00BF7D
:1011E0007047BD490860704770B5049C41EA82159C
:1011F0000126C6EB530645EA0645054345EA046564
:10120000B14E361D356070BDB24908667047820127
:1012100042EA0172AC4B84331A607047AD4988666C
:101220007047AC49C864704702460020A64B08339B
:10123000186820F0EC6042EA01031843A24B08331F
:1012400018607047024600209F4B0833186820F052
:10125000784042EA010318439B4B083318607047FB
:1012600001460020984A0832106820F00300084325
:101270001060704794480830006800F00C00704718
:1012800001460020904A0832106820F0F000084320
:1012900010607047014600208B4A0832106820F425
:1012A000E05008431060704701460020864A08322B
:1012B000106820F4604040EAC10010607047F0B54B
:1012C0000021002200240225002602237E4F083739
:1012D0003F6807F00C0121B1042905D0082937D156
:1012E00005E07E4F076036E07D4F076033E0764FC4
:1012F0003F1D3F68C7F38056734F3F1D3F6807F09F
:101300003F036EB1764FB7FBF3F7DFF8BCC10CF1CA
:10131000040CDCF800C0CCF3881C07FB0CF40CE0D8
:101320006E4FB7FBF3F7DFF8A0C10CF1040CDCF84B
:1013300000C0CCF3881C07FB0CF4634F3F1D3F68D3
:10134000C7F301477F1C7D00B4FBF5F7076002E09F
:10135000624F076000BF00BF5B4F08373F6807F070
:10136000F00109095F4F7A5C0768D7404760564F24
:1013700008373F6807F4E051890A5A4F7A5C47689A
:10138000D7408760504F08373F6807F46041490BEA
:10139000544F7A5C4768D740C760F0BD002100F425
:1013A0004072B2F5407F0AD1474A0832116821F4F1
:1013B000F8114D4A02401143434A08321160424A33
:1013C00070321268C0F30B031A433F4B70331A603C
:1013D000704741494439086070473F4940390860C7
:1013E000704742490860704739B1374A3032126855
:1013F0000243354B30331A6006E0334A303212680C
:101400008243314B30331A60704739B12E4A34323F
:10141000126802432C4B34331A6006E02A4A3432F5
:1014200012688243284B34331A60704739B1264A18
:10143000383212680243244B38331A6006E0224ADD
:10144000383212688243204B38331A60704739B102
:101450001D4A4032126802431B4B40331A6006E0BB
:10146000194A403212688243174B40331A60704762
:1014700039B1154A443212680243134B44331A609F
:1014800006E0114A4432126882430F4B44331A601B
:10149000704739B10C4A1032126802430A4B1033BC
:1014A0001A6006E0084A103212688243064B103375
:1014B0001A607047E1B1044A143212680243024BC9
:1014C00014331A6019E0000000380240FFFFF6FEF6
:1014D0001030002400004742800E47420024F400F0
:1014E00000127A0020000020FFFCFF0F5C01474241
:1014F0005B4A126882435A4B1A60704739B1584AA6
:10150000121D12680243564B1B1D1A6006E0544A16
:10151000121D12688243524B1B1D1A60704739B16D
:101520004F4A0C32126802434D4B0C331A6006E0EE
:101530004B4A0C3212688243494B0C331A60704795
:1015400039B1474A103212680243454B10331A60D2
:1015500006E0434A103212688243414B10331A604E
:10156000704739B13E4A3C32126802433C4B3C332F
:101570001A6006E03A4A3C3212688243384B3C33E8
:101580001A60704739B1364A403212680243344B10
:1015900040331A6006E0324A403212688243304BD0
:1015A00040331A60704739B12D4A44321268024301
:1015B0002B4B44331A6006E0294A443212688243B6
:1015C000274B44331A60704739B1254A4C321268B0
:1015D0000243234B4C331A6006E0214A4C32126816
:1015E00082431F4B4C331A60704739B11C4A50324A
:1015F000126802431A4B50331A6006E0184A503200
:1016000012688243164B50331A60704739B1144A3E
:10161000D21F12780243124BDB1F1A7006E0104AE9
:10162000D21F127882430E4BDB1F1A7070470C4892
:101630006030006840F08070094960310860704790
:1016400001460020064A083A12680A400AB1012001
:1016500000E0002070470249891F087070470000B1
:101660001438024008B50022009200200021CA224E
:10167000FE4B1A6053221A60FC4A183A126822F094
:10168000A002FA4B183B1A6000BFF84A183A1268D9
:1016900002F02001009A521C0092009AB2F5004F0D
:1016A00001D00029F1D0F14A183A126802F0200264
:1016B0000AB1012000E00020FF22EC4B1A6008BDB7
:1016C00008B50022009200200021E84A183A12686A
:1016D00002F04002E2B9421EE44B183B1A6000BF20
:1016E000E24A183A126802F04001009A521C009235
:1016F000009AB2F5803F01D00029F1D0DB4A183AB8
:10170000126802F040020AB1012002E0002000E06D
:10171000012008BD38B50020009000240025CA2013
:10172000D249086053200860FFF7CAFF00B947E0BC
:101730000020CE492439086042F20110091D0860DA
:10174000081D006800F00700091D086000BFC748B9
:101750001838006800F004040098401C00900098BD
:10176000B0F5803F01D0002CF1D0C0481838006897
:1017700000F0040008B9002522E0BC481C380068CD
:101780000020BA491C3908604FF6FF70B74910397C
:101790000860B748091F08600020B4490C39086088
:1017A000091D0860091D0860B04918390860AF4973
:1017B0001C310860FFF756FF08B9002500E001253D
:1017C000FF20AA490860284638BDA8481838006894
:1017D00020F08000A54918390860704730B50446EC
:1017E0000025CA20A149086053200860FFF768FF60
:1017F00000B91DE09D481C38006820F040009B495E
:101800001C390860084600682168084397491C395C
:10181000086096491439A068086008460068A188E5
:1018200040EA0140914914390860FFF7CEFF0125D5
:10183000FF208E490860284630BD002101607F21CD
:101840004160FF218160704718B1FF21874A116014
:1018500004E0CA21854A116053211160704730B5F8
:1018600004460025CA208149086053200860FFF71C
:1018700027FF00B914E044B17C481C38006840F0F0
:1018800010007A491C39086007E078481C38006865
:1018900020F0100075491C390860FFF796FF0125FC
:1018A000FF2072490860284630BD0146002204E04E
:1018B000501CC2B2A1F10A00C1B20A29F8DA10071D
:1018C00041EA10607047014600BF080900EB800044
:1018D000420001F00F001044C0B270472DE9F04102
:1018E00005460C460026002755B960481C3800689C
:1018F00000F0400000B102E00020E07000BF0EE008
:101900005A481C38006800F0400020B12078FFF7EA
:10191000DAFF064602E00020E07000BF00BF55B1CC
:1019200020780004617840EA0120A1780843E1783A
:1019300040EA014611E02078FFF7B7FF4FEA004880
:101940006078FFF7B2FF48EA0028A078FFF7ADFF04
:1019500048EA0008E07848EA0046CA20434908609F
:1019600053200860FFF7ACFE08B900270CE041489F
:1019700030403E4924390860FFF727FFFFF772FE29
:1019800008B9002700E00127FF20384908603846E1
:10199000BDE8F0810021C170017041708170704715
:1019A00070B506460C460025304824380068314999
:1019B00000EA0105C5F305402070C5F306206070FC
:1019C00005F07F00A07005F48000000CE0705EB9A7
:1019D0002078FFF778FF20706078FFF774FF607061
:1019E000A078FFF770FFA07070BD2DE9F0410546AB
:1019F0000C46002600274DB9607800F01000102832
:101A000004D1607820F010000A30607005B908E059
:101A10006078FFF758FF0646A078FFF754FF0646A8
:101A200000BF55B1E0780004617840EA0120A17858
:101A30000843217840EA413611E0E078FFF735FFAE
:101A40004FEA00486078FFF730FF48EA0028A078A6
:101A5000FFF72BFF48EA0008207848EA4036CA2002
:101A6000024908605320086006E000002428004076
:101A7000FF007F007F7F7F00FFF722FE08B900276D
:101A80000BE0F6483040F6490860FFF79EFEFFF78E
:101A9000E9FD08B9002700E00127FF20F0492031C7
:101AA00008603846BDE8F081012101708170417005
:101AB0000021C170704770B506460C460025E84805
:101AC0000068E64900EA0105280CE070C5F304202F
:101AD000607005F03F00A070C5F3423020706EB911
:101AE000E078FFF7F0FEE0706078FFF7ECFE6070E2
:101AF000A078FFF7E8FEA0702078207070BD2DE977
:101B0000F04105460E46144600276DB9D448001D25
:101B1000006800F0400000B102E00020E07000BF6B
:101B2000A06800B91AE019E0CD48001D006800F077
:101B3000400020B12078FFF7C6FE074602E00020F3
:101B4000E07000BFA06820B9207BFFF7BCFE07460D
:101B500004E0207BFFF7B7FE074600BF95B1207871
:101B60000004617840EA0120A1780843E17840EA66
:101B70000140217B40EA0160A1680843616840EAB6
:101B800001071BE02078FFF790FE4FEA00486078DD
:101B9000FFF78BFE48EA0028A078FFF786FE48EAA8
:101BA0000008E07848EA0048207BFFF77EFE48EA1C
:101BB0000060A1680843616840EA0107CA20A8499B
:101BC0002031086053200860B6F5807F03D1A44817
:101BD0001830076002E0A2481C300760FF20A049CF
:101BE00020310860BDE8F0810021C17001704170B2
:101BF00081708160012101730021416070472DE9EE
:101C0000F04106460F4614460025B7F5807F03D104
:101C100093481830056802E091481C300568C5F308
:101C200005402070C5F30620607005F07F00A070AD
:101C300005F48000000CE070C5F30560207305F02A
:101C40008040A06005F0803060607EB92078FFF7AA
:101C50003AFE20706078FFF736FE6070A078FFF7DC
:101C600032FEA070207BFFF72EFE2073BDE8F081CE
:101C700038B502460024009400230020CA24784D81
:101C800020352C6053242C6041B1754C241D2468F0
:101C90001443734D2D1D2C6001201EE0704C241D3B
:101CA000246894436E4D2D1D2C6000BF6C4C08348D
:101CB000246804EA1223009C641C0094009CB4F580
:101CC000803F01D0002BF1D0654C0834246804EA31
:101CD00012240CB9002000E00120FF24604D2035C3
:101CE0002C6038BDCA215E4A203211605321116038
:101CF0005B49091D096821F00701594A121D11604D
:101D00001146096801431160FF21554A20321160D4
:101D10007047CA21524A2032116053211160504944
:101D200010310860FF21116070474D481030006885
:101D300080B2704718B501460023009300220020AE
:101D4000CA23474C203423605323236049B1444BBA
:101D50001B1D1B6843F48063414C241D236001203C
:101D60001FE03F4B1B1D1B6823F480633C4C241D6C
:101D7000236000BF3A4B08331B6803F00402009B4A
:101D80005B1C0093009BB3F5803F01D0002AF1D08B
:101D9000334B08331B6803F004030BB9002000E049
:101DA0000120FF232E4C2034236018BDCA222C4B67
:101DB00020331A6053221A60294A121D126822F435
:101DC0008022274B1B1D1A601A46126840EA010345
:101DD0001A43234B1B1D1A60FF22214B20331A602C
:101DE00070471F48001D006800F480207047CA2219
:101DF0001B4B20331A6053221A60194A121D1268B5
:101E000022F4E002164B1B1D1A601A46126840EAC3
:101E100001031A43124B1B1D1A60FF22104B203383
:101E20001A60704770B504460D460026CA200C495A
:101E30002031086053200860FFF742FC00B907E03A
:101E400044EA0500064914310860FFF7BEFC01268C
:101E5000FF20034920310860304670BD3FFFFF007E
:101E60000428004030B504460025CA20C149086056
:101E700053200860FFF724FC00B914E044B1BD48CA
:101E80001C38006840F08000BA491C39086007E03F
:101E9000B8481C38006820F08000B6491C3908603A
:101EA000FFF793FC0125FF20B2490860284630BDAA
:101EB000CA21B04A11605321116040B1AD491C39AB
:101EC000096841F40001AB4A1C3A116007E0A949D6
:101ED0001C39096821F40001A64A1C3A1160FF214F
:101EE000A44A1160704710B50A460021A14B1C3B63
:101EF0001B6840F6080423EA04011AB140F40063A9
:101F0000194300E00143CA239A4C23605323236002
:101F1000984B1C3B1960FF23236010BD2DE9F04155
:101F200080460C4615460026002792480C30006873
:101F3000914900EA01068F48103000688F4900EA95
:101F40000107C6F305402070C6F30620607006F056
:101F50007F00A07006F48000000CE0700020E870A4
:101F6000C7F30420687007F03F00A870C7F3423041
:101F70002870B8F1000F17D12078FFF7A4FC20706B
:101F80006078FFF7A0FC6070A078FFF79CFCA07061
:101F90006878FFF798FC6870A878FFF794FCA87041
:101FA0002878FFF790FC2870BDE8F08141B9714AAC
:101FB0001C32126822EA40026E4B1C331A6007E0A2
:101FC0006C4A1C32126842EA40026A4B1C331A60A7
:101FD000704739B1674A1C3212680243654B1C33A3
:101FE0001A6006E0634A1C3212688243614B1C335C
:101FF0001A60704708B5002200925E4A2C320092A7
:10200000009A02EB80020092009A116008BD08B5A8
:1020100001460020009057482C300090009800EBBB
:10202000810000900098006808BD52491C31096881
:1020300021F480314F4A1C32116011460968014376
:10204000116070474B491C31096821F40031494A3D
:102050001C321160114609680143116070474549FF
:102060001C31096821F48021424A1C32116011465A
:102070000968014311607047CA223E4B1A6053221F
:102080001A6091B13B4A1C3A126820F004031A43CB
:10209000384B1C3B1A60374A1C32126800F00403AC
:1020A0001A43344B1C331A6011E0324A1C3A12684E
:1020B00020F004039A432F4B1C3B1A602D4A1C321C
:1020C000126800F004039A432A4B1C331A60FF2263
:1020D000284B1A60704710B5014600200022254B9E
:1020E000183B1B6843F6777403EA040202EA010313
:1020F0000BB1012000E0002010BD81B241F0800151
:102100001C4A183A126802F0800262EA0101194A78
:10211000183A1160704730B50146002000220023B4
:10212000144C1C34246804F00402124C1C3C246837
:102130000C4002EAD13544EA05030E4C183C2468F1
:1021400004EA11121BB194B20CB1012000E000208E
:1021500030BD002101098AB242F08002054B183BD4
:102160001B6803F0800363EA0202024B183B1A600B
:1021700070470000242800407F7F7F003FFFFF0062
:1021800010B50446E348844208D101218014FFF7CA
:10219000D7F90021A014FFF7D3F916E0DE488442F6
:1021A00008D101210014FFF7BAF900212014FFF72C
:1021B000B6F90AE0D948844207D10121C013FFF7DC
:1021C000AEF90021E013FFF7AAF910BD10B5002207
:1021D000028802F441520B884C8823438C882343A5
:1021E000CC8823430C8923434C8923438C89234384
:1021F000CC8923431A430280838B4FF2FF74234020
:1022000083830B8A038210BD2DE9F04F0025022342
:102210000024012700220026944690469146B0F8FB
:102220001CA04FF2400B0AEA0B0AA0F81CA04FF0CA
:10223000020AA0F820A0858BD1F808A0BAF1020FFD
:1022400001D100BF6CE0B1F804A0BAF1000F01D1D8
:10225000012700E00227DFF8C8A2DAF800A00AF49C
:10226000000ABAF1000F09D0DFF8B4A2DAF800A032
:102270002AF4000ADFF8A8B2CBF800A0DFF8A0A289
:102280000AF17C0ADAF800A0CAF38818DFF890A2F5
:102290000AF17C0ADAF800A0CAF30279DFF880A21A
:1022A000AAF1040ADAF800A00AF03F0CDFF874A2E1
:1022B000BAFBFCFA0AFB08FABAFBF9F6B1F806A079
:1022C000BAF5007F0ED14FEA162A0AEB8A0A4FEAC6
:1022D0004A0AD1F808B0BAFBFBFA0AF1050A1FFA5C
:1022E0008AF20FE04FEA471AB6FBFAFA0AEB8A0ABB
:1022F0004FEA4A0AD1F808B0BAFBFBFA0AF1050A1C
:102300001FFA8AF24FF00A0AB2FBFAF202F0010455
:10231000A2EB040ACAF34F034FF6FF7A0AEA042439
:10232000022B01DBFF2B01DD02230024B1F806A004
:102330004AEA040A4AEA030AA0F820A0B1F804A075
:10234000B1F80CB04AEA0B0AB1F802B04AEA0B0A3B
:10235000B1F800B04AEA0B0A4AF4006A4AEA0505F5
:102360008583BDE8F08F0021018041808180C1809C
:10237000018141818181C181072101827047002152
:10238000018041808180C1800221816000218181A2
:10239000704721B1028842F04002028004E00288C6
:1023A0004FF6BF731A400280704721B1828B42F40E
:1023B0008062828304E0828B4FF6FF331A4082836F
:1023C000704702884FF2FF731A40028002880A4366
:1023D00002807047B1F5804F04D1028842F48042F8
:1023E000028004E002884BF6FF731A4002807047B7
:1023F0004FF6FF62914204D0028842F4807202805C
:1024000004E002884FF6FF631A400280704721B152
:10241000828842F00402828004E082884FF6FB73D7
:102420001A408280704721B1828842F01002828077
:1024300004E082884FF6EF731A40828070470146AD
:10244000888970478181704721B1028842F4005227
:10245000028004E002884DF6FF731A400280704744
:10246000018841F480510180704702460020012913
:1024700001D0108B00E0908A70470146088A7047AF
:102480001AB183880B43838002E083888B43838067
:10249000704730B5002400230C110125A540ABB2D4
:1024A0001AB185881D43858002E085889D4385801B
:1024B00030BD0246002013890B400BB1012000E023
:1024C00000207047CA4302817047F0B502460020E1
:1024D00000240023002501F00F070126BE40B4B2FE
:1024E0000B1101269E40B3B2968806EA03051689B1
:1024F000264016B10DB1012000E00020F0BD10B55E
:10250000002201F00F040123A3409AB2D3430381B8
:1025100010BD00000030014000380040003C004089
:102520000838024000127A007047704770477546BD
:1025300000F02CF8AE4605006946534620F007002F
:10254000854618B020B5FDF779FEBDE820404FF074
:1025500000064FF000074FF000084FF0000B21F08D
:102560000701AC46ACE8C009ACE8C009ACE8C0095A
:10257000ACE8C0098D46704710B50446AFF3008043
:102580002046BDE81040FDF744BE000000487047FB
:102590003C00002001491820ABBEFEE726000200E7
:1025A00070470000C4250008000000203000000033
:1025B000C0010008F425000830000020700600006B
:1025C000DC010008000E27070000000000000000EA
:1025D00001020304060708090000000000000000D3
:1025E00000000000000000000102030401020304D7
:0425F00006070809C9
:040000050800018569
:00000001FF
