:020000042000DA
:1000000000980020A5040020AD040020C5040020B5
:1000100000000000000000000000000000000000E0
:10002000000000000000000000000000DD040020CF
:100030000000000000000000F50400204D23002017
:10004000CB270020C72800200D310300B528002051
:10005000332800208D310300D5280020E32800201C
:10006000C1210020FD1D002025290020AD31030005
:100070005781020007230020F9040020F904002022
:10008000F9040020F9040020F9040020971D002045
:100090009B1D00209F1D0020A31D0020A71D0020E8
:020000042000DA
:1001600032000000F10A00209F240020D92B00203B
:10017000000000000000000063800200BD8002005B
:10018000570F0020FB800200198102003581020018
:100190005D810200552600200D1000202B0F00204D
:1001A000370F002000000000000000003F000000AA
:1001B000F48B002000040000CC1D08004801000062
:1001C000C019080000040000201F080020050000DE
:1001D000000000002000000048000000580000005F
:1001E0006800000004010000160100002801000062
:1001F0002E010000202A00008E2E000001000000C9
:10020000881300002B250020E9600200FD93020006
:100210007316002019280300A5740200310A00207B
:1002200003000000D5200200E12B002004000000A4
:10023000D74902000F490200D91000206391020043
:10024000B7910200BF910200078202007182020092
:1002500058670020AD8302009384020041850200AC
:1002600015860200378602005F860200758602004E
:10027000F9870200258902005D8A0200D38C020002
:10028000098D02000F900200438D0200278E0200AC
:10029000F98E0200478F02008D0E0020D58F0200DC
:1002A00049510200775102002F5202001000000055
:1002B00020030000803E000000000000000000005D
:020000042000DA
:1002C000504600030003983A6400F401B80B000C98
:1002D000B80B120030003000CD009A01120024004B
:1002E00030006400B0001800280012001200D0078F
:1002F0000000FFFF00000000000000000000000000
:100300001F000002444131343538302D30310000B7
:1003100000000000000000000000000000000000DD
:0403200000000000D9
:020000042000DA
:10034000FFFF010000C201000000000000000000EB
:100350000000F4010100010E000A09FF60001234E0
:1003600056789ABC0303E7FE00000000000000007E
:10037000000000000000000000000000000000007D
:10038000000000000000000000000000000000006D
:100390000000000000000000000042415849414EAA
:1003A0005F424C450000000000000000000000001B
:1003B000000000000000000000000000000000003D
:1003C000000000000000000000000000000000002D
:1003D000000000000000000027EFA57239D0D00710
:0403E000064064323D
:020000042000DA
:100440000348854605F024FC00480047C720020009
:10045000009800200F4906200880FF200E49013037
:1004600008600E4988683E2290432E308860002242
:10047000052000070280018A0F231B021943018215
:100480000121C904064804C1401E0028FBDA62B6F7
:10049000704700000034005080E100E0003300505D
:1004A000FF0B00001548804715480047042071469F
:1004B000084203D0EFF3098012490847EFF30880A0
:1004C0001049084704207146084203D0EFF3098021
:1004D0000D490847EFF308800B490847042071468F
:1004E000084203D0EFF3098008490847EFF308807A
:1004F00006490847FEE7FEE7FEE700005504002036
:10050000410400207105002011050020ED1100209C
:1005100005221207518A8023194351821249036828
:100520000B6043684B6083688B60C368CB60036972
:100530000B6143694B6183698B61C369CB6108625D
:100540000A48836A4B62C36A8B62036BCB62C36BDC
:100550000B63436B4B63806B8863908A800601D585
:1005600000BE7047FEE700000018080000ED00E044
:1005700005221207118A042319431182118A0223CA
:100580001943118211894023194311811B4B012109
:1005900019601B4B08211980518A8023194351820D
:1005A000184903680B6143684B6183688B61C368BA
:1005B000CB6103690B6243694B6283698B62C369D8
:1005C000CB6208631048836A4B63C36A8B63036B17
:1005D000CB63C36B0B4940310B60436B4B60806B4B
:1005E0008860908A800608D500BE508A0121800864
:1005F0008000C903084350827047FEE780E200E0B4
:10060000003300504018080000ED00E002460020D2
:100610001168002904D0084641681160002141603A
:100620007047002903D00268002A02D004E00020AD
:100630007047016005E0024650680028FBD1516018
:1006400048600120704770B505460321082005F079
:1006500031FB0446002C0AD00321284605F02AFB72
:100660002060002805D000206060204670BD00207A
:1006700070BD204605F024FB002070BD10B5044677
:10068000002C03D02068002802D002E0002010BD1A
:1006900000BE05F015FB204605F012FB012010BD41
:1006A0000146002000E0401C0A5C002AFBD1704794
:1006B000FFB581B017461D462C4600260299102929
:1006C00002D9002005B0F0BD002801DA0126404221
:1006D000029905F0FBFA0A2901DA303106E0002F11
:1006E00001D0412200E0612251180A392170641CB6
:1006F0000028EDDC601B302102E02170641C401CEE
:100700000A9A9042F9D3002E02D02D202070641C4A
:1007100000202070601B0021440807E06B5C421A37
:100720005219203AD67F6E54D377491C8C42F5D8A3
:10073000C8E770B5049D04462068401A101A411E8F
:10074000A94200D2451E002006E02668195C3170DF
:100750002168491C2160401CA842F6D32168002072
:100760000870104670BDFFB589B00746089700268F
:100770001378541C08980A99C01B401C884249D21F
:10078000252B05D0394608A80A9A00F024F93DE047
:1007900000212578641C302D09D12078641C0028A4
:1007A00038D03038092800D8C1B22578641C6C2DA7
:1007B00001D0682D02D12E462578641C692D2DD0DC
:1007C00008DC002D26D0582D45D0632D6DD0642D2A
:1007D00006D123E0732D74D0752D3CD0782D3AD0FE
:1007E0002520009084A3394608A80A9AFFF7A1FFA4
:1007F0002B46394608A80A9A00F0EDF8022000902E
:1008000087A3394608A80A9AFFF793FF2378641C48
:10081000002BAFD108980DB0C01BF0BD682E12D0D0
:100820006C2E14D00C9A01CA0C92009102AB0022DB
:100830000A21FFF73DFF009002AB394608A80A9A4B
:10084000FFF777FFE2E70C9A01CA0C92EDE70C9AEA
:1008500001CA0C92E9E7682E16D06C2E18D00C9ABB
:1008600001CA0C92752D17D00091582D1BD0002273
:1008700002AB1021FFF71CFF009002AB394608A81D
:100880000A9AFFF756FFC1E70C9A01CA0C92E9E7F2
:100890000C9A01CA0C92E5E7009102AB00220A21F2
:1008A000FFF706FFE8E70122E2E70C980178001D58
:1008B000CBB20C90394608A80A9A00F08CF8A5E74C
:1008C000FFE70C9820C80C902846FFF7E9FE00903F
:1008D0002B46394608A80A9AFFF72BFF96E70FB474
:1008E000039B04B03FE710B54E48FFF78FFEFFF7BC
:1008F000C5FE01F0E9FC4B48001F4068002809D004
:1009000004682046FFF7CCFE0146474A204601F026
:10091000E9FC10BD00F014FA10BD10B5414C241FC5
:10092000207800280DD000F02DFA60680068FFF7ED
:10093000B7FE014660683C4A006801F0D3FC002025
:10094000207010BD0FB4F0B5C1B038480078002851
:1009500005D0002041B0F0BC08BC04B0184747AB3C
:10096000FF2101316846469AFFF7B9FF00274097FB
:100970006846FFF795FE401CFFF765FE0446200021
:1009800021D06946206805F0B0F8EFF31086012009
:1009900080F31088234D2D1F6868002801D10120A5
:1009A000287021461F48FFF73CFE002806D120464C
:1009B000FFF764FE6868002800D12F70002E06D073
:1009C000012080F31088FFF7A8FF0120C2E7002074
:1009D00080F31088F7E710B50468611A491C91424A
:1009E00001D3002010BD23700168491C0160002064
:1009F0000870012010BD0000464154414C3A20755A
:100A00006E737570706F72746564207072696E7445
:100A100066206368617261637465723A2000000049
:100A20002E0A000050240800E7080020C406080031
:100A300070B505460C461646012D02D00C2D28D166
:100A40000FE006222349244805F046F9002820D06B
:100A500006222149304605F045F906202070002085
:100A600070BD1E4D29680878C00610D52078202852
:100A700003D200202070042070BD0A7E3A31304637
:100A800005F030F92868007E2070002070BD01203C
:100A900070BD32462146284605F02AF970BD70B572
:100AA0000F481049C405228880252A4322800E4B16
:100AB0005A89120702D4401E421CF9D10B4A012068
:100AC00010600622044805F00DF92088A843208014
:100AD00070BD0000383E030054240800C006080022
:100AE000A0860100D47F0400200000500080004058
:100AF00008B500F098FA05252D070024288900067E
:100B000008D501208007006B000403D405F0F6F837
:100B1000C0071BD00020002812D0042005F0F4F8F4
:100B2000064605F0F7F8002E08D000940421684628
:100B300005F0F6F8002801D000F0B6F9FFF7EDFE59
:100B400072B601F04EFF042802D006E00120E2E771
:100B500052480078012807D00320022806D0032835
:100B600004D001280BD00BE00220F6E700F00AF8D1
:100B700030BF4B48016904229143016100E030BF5E
:100B800062B6BBE7FEB5019005252D07298A042230
:100B90001143298204464348434FC0690126012876
:100BA00013D9032C0FD105F0C1F800280BD005F0A4
:100BB000C3F8002807D0032005F0C4F8002802D0AD
:100BC000022038700BE0022409E0032C06D1032038
:100BD00005F0B8F8002801D03E7000E0022401942E
:100BE000204600F025F8314800210170022C01D088
:100BF000032C1CD12E484288FF2301339A434280A4
:100C00006A882C4B1A80428832434280009102E06D
:100C10000098401C009000981428F9DB688980082F
:100C20008000401C688168894006FCD56980FEBD53
:100C300010B5022801D0032828D1194A13690421CC
:100C40000B43136105221207538A2024A3435382C6
:100C5000138A0224234313821023022817D0508AB8
:100C6000084350827F21890110888024204310800E
:100C70000020401CC0B20A28FBD3508A184350827F
:100C80000D48491E41611088A043108010BD508A54
:100C900008435082508A9843508210BD5402080085
:100CA00000ED00E0E0010020C4060800B8240800C0
:100CB00020000050BA240800008000407047000067
:100CC00039480178002902D08021417070473749A6
:100CD000002008703649C8707047334801780029F1
:100CE00002D081214170704730490120087030499D
:100CF000C87070472C480178002902D082214170C9
:100D0000704700BE29490220087029490120C87097
:100D10007047002804D0012803D0022802D1E9E757
:100D2000CEE7DAE77047002020490978002904D08F
:100D3000012903D0022900D1022070470120704709
:100D400019498878002801D0401E887088780028CA
:100D500017D148780022002804D08007800F08703F
:100D60004A7004E00878002801D0401E0870087816
:100D70000A70002805D0012802D0022801D1B9E765
:100D8000ABE7704700B5084A9078401C9070107827
:100D9000002805D1FFF7C7FF431CFFF791FF137031
:100DA00000BD0148C07870475B2408005402080069
:100DB000C6060800D04900204860704770B505227B
:100DC0001207108930218843108110898024204324
:100DD0001081108980088000401C1081108908252E
:100DE00028431081C54B188820431880508AA84397
:100DF00050821089402630431081108A0421884394
:100E00001082908A8007FCD5FFF7D4FF0120198853
:100E10000143198058898105B94803D519880143D0
:100E2000198002E019888143198018887821884345
:100E3000283018801888062108431880508A2843D3
:100E400050821888A04318801089B04310815889B7
:100E5000800503D5A94905206031888001208007DD
:100E60000168821591430160A64801683F22520241
:100E70009143421489180160016802031143016023
:100E800070BD10B5A04804F063FF10BD70B59B4C59
:100E90006088C006050F04F061FF61881E2291433F
:100EA0006A001143618070BD70B501219748C1632C
:100EB000C16B0029FCD101208007C0699449002240
:100EC0000B68984200D20A608B4C01266378914DE2
:100ED000002B0DD06270086004F046FF28800120CE
:100EE00004F048FF04F04CFF002800D1667070BD8C
:100EF0000A681923821ADB019A42F8D3086004F0C9
:100F000033FF2988884202D9411A89B201E0091ABF
:100F100089B21829EBD32880012004F02BFF04F0BC
:100F20002FFF0028E3D1667070BD08B504F02EFFD6
:100F30000090009808BD08B504F02EFF00900098BE
:100F400008BD75484069C007C00F002801D00020C7
:100F500070470120704738B501246F494869400641
:100F6000C00F00280AD048698006C00F002805D0AD
:100F7000002008610090FF215F3104E000240CE0B4
:100F8000009A521C009200988842F9D3FFF7D9FFCB
:100F9000002802D104F006FF0024204638BD1FB50A
:100FA000684601F084F8009804F002FF1FBD10B5F8
:100FB00000205A4A117800290DD001215348C163FD
:100FC000C16B0029FCD101208007C0695449096820
:100FD000884201D2012010BD00201070FFF7A3FE4F
:100FE000022803D0FFF79FFE01280BD14D490820AE
:100FF000088005200007818A8906FCD4418A802266
:1010000091434182002010BD0020704710B5464931
:1010100000200860FFF735FF01208007016B4900C1
:101020004908016310BD10B53C49012008703D49D5
:101030000820088004F0C2FE00F0BCFDFF2401344B
:101040000D202146800104F0BFFEFFF728FD02F0CD
:101050007FFE012004F0ACFE01F080F9FFF7AEFE48
:10106000042000F041F8072000F03EF80A2000F0CC
:101070003BF8062000F038F80B2000F035F801208E
:1010800000F032F8022000F02FF8002000F02CF8D9
:101090002648006804F09EFE00F08BF800F047FD43
:1010A000A005026822430260FFF779FF0024FFF7E2
:1010B00007FE02F0ABF802F0D4FAFFF7A7FF052015
:1010C0000007C4820D494888E0229043A030488040
:1010D000012004F085FE10BD10B51549884200D0EE
:1010E00000BE04F083FE10BDC106C90E0120884079
:1010F000104908607047000060240800200000507C
:101100000010000000020040E2040000C0000040A7
:101110007C04080078040800001000505A240800DD
:10112000286E0020003300508C030800049000203B
:101130001111111180E200E0FFB581B007460E46A3
:1011400075783478002004F057FE042824D0002855
:101150001DD121E04148816E2E2060430918888806
:101160000207120F130004F04DFE070505050F05D9
:101170000F050F008204920E062A05D27278012A0A
:1011800012D0072210438880641C6407640F28462D
:101190006D1EEDB20028DDD131463846049B039A1E
:1011A00004F036FE05B0F0BD204604F037FE002006
:1011B000F8E770B52A4D2B1D2C780020294A07E04E
:1011C000C1005E5C002E01D149198A60401CC0B28A
:1011D000A042F5D370BD028908892349101A80B254
:1011E000884201D901207047002070478169203969
:1011F000897F082905D21B4A890010325158816124
:101200007047FEE71A48194901611A4941611A49B4
:1012100081611A49C1611A4901621A4941621A4938
:1012200081621A49C1621A4901631A4941631A4924
:1012300081631A49C1630E481949403081601949D8
:10124000C16001201849C00608601849CA69120225
:10125000120ACA611449803908607047D802080030
:1012600004060800A86800203075000094270300D9
:101270000084004062B600DF28A30200704701DF4F
:101280001CCA0200F8BD02DF40CB0200F5E703DF15
:1012900084D4020004DF89B0941B030005DF00B58D
:1012A000EC0C030070BD07DF80E100E000ED00E022
:1012B00070B516460D46104604F09EFD002869D014
:1012C000340A304604F098FD012812D0A87A1E286E
:1012D00011D029460A310E2845D019DC801E0300A2
:1012E00004F090FD0B255829582D58315839583D98
:1012F0005800022070BD3146274804F095FD0021BA
:10130000204604F097FD0221304604F099FD41E0AB
:1013100018283CD006DC102819D012282BD016280B
:1013200038D130E0522822D0D22833D127E02046CD
:1013300004F08CFD2EE0204604F08EFD2AE02046CD
:1013400004F090FD26E0204604F092FD22E02046C5
:1013500004F094FD1EE0204604F096FD1AE02046BD
:1013600004F098FD16E0204604F09AFD12E02046B5
:1013700004F09CFD0EE0204604F09EFD0AE02046AD
:1013800004F0A0FD06E0204604F0A2FD02E02046A5
:1013900004F0A4FD002070BD01280000F8B50D4642
:1013A000064681002B48EA884458521C20686B8905
:1013B000018F294F51430091014640314A89C98923
:1013C000511A8AB2991A89B2B94214D29A4212D0E9
:1013D000294604F089FD2D892049009804F076FC07
:1013E0002818801C4034E0823002401C80B2042166
:1013F00004F026FDF8BD2821304604F07BFDF8BD41
:10140000F8B50546870013480C46C059C9880068DE
:10141000114E024640325389D2899A1A92B28B1ADF
:101420009BB2B34211D20B4E8A420ED004F068FD3B
:10143000F05905225F30611C04F054FC2802401C66
:1014400080B2052104F0FCFCF8BD2821284604F0F8
:1014500051FDF8BD4C030800FF7F0000102700007D
:1014600070B50446007800250D2801D00A2200E05E
:1014700002225A494B7A002B06D00D2804D0637CF7
:10148000032B01D0432551E0097A8A4339D10D2835
:1014900009D00E2802D00F2803D134E0607C032845
:1014A00004D3402542E0607C0328FAD8A07C0428BD
:1014B000F7D20A2908D0607C012822D0022820D047
:1014C0006078032809D811E004F020FD012806D136
:1014D0006078032803D0002801D0492526E004F0D5
:1014E00015FD002802D160780228F6D83020035D6F
:1014F00022462046E17C3132143000F019F80546CE
:1015000014E0422512E004F001FD012807D16078C3
:10151000052804D1A01D04F0FFFC0028DDD004F054
:10152000F5FC002802D160780228D6D8284670BD84
:10153000FFB5002086B001216A461170044605916E
:101540000021002C06D0089D099A1F239A4234D905
:10155000402032E01C23069D079AF7E76B185E785F
:10156000330004F04FFC1D26101010101010101046
:10157000102626262626262626262626262610104D
:10158000101010102600059B03E06F46FF5CB74269
:1015900004D05B1E5BB2002BF7DA03E0002B01DB0B
:1015A0004A2006E0059B6F46FE54059B5B1CDBB2A0
:1015B00005936B5C491C5918C9B2914201D20028AD
:1015C000CCD0914202D04A200AB0F0BD641CE4B2F3
:1015D000022CF9D20028B3D0F6E7000098050800E5
:1015E00070B5EFF31085012080F31088264804F0D1
:1015F00099FC0446002D1DD0012080F31088002C9A
:1016000023D020462038C08B204988421DD16189D3
:10161000208904F08DFC05000ED021461031A389ED
:1016200062892089A847002806D001280DD0022809
:101630000BD105E00020E0E7204604F07FFC04E049
:10164000114821460C3004F07FFCEFF31084012098
:1016500080F310880C480068002802D1012004F0B3
:1016600079FC002C03D0012080F3108870BD00208D
:10167000FAE710B5BC21064804F072FC05490120C8
:1016800004F074FC10BD0000A805080038830000B9
:1016900004060800E115002000B5027900211300BE
:1016A00004F0B0FB0C3407073535203535353535BA
:1016B00027344279042A27D8C279530707D0520722
:1016C000520F012A03D0042A01D0052A1CD18279A5
:1016D000002A01D0012A17D1007AC01F0A2816D388
:1016E000062114E04279521E0A2A10D308224271C0
:1016F0000DE0407942070AD04007400F012806D08C
:10170000042804D0052802D00A2100E00721084659
:1017100000BDF3B581B001980C460102CA1D022339
:1017200032480E3104F028FC047001990546022766
:101730002F488E00002C06D0042C16D0062C10D07A
:10174000072C3FD108E0815905224968897C114066
:1017500069708059C77335E0084604F013FC68705F
:1017600030E080590F21C1732CE004468059406855
:10177000417C012902D1007E01280FD0019804F09C
:1017800007FC01210028A0590BD04268D07D002819
:101790001CD001281AD004280DD00FE0002068705A
:1017A0000DE04068C27D022A01D0042A06D1007CE7
:1017B00002280BD102E0107C022807D06F70A159DB
:1017C0000320C873284604F0E9FBFEBD6970F6E704
:1017D00001460A780120042A01D90020704749787F
:1017E0000029FBD00129F8D170470000021C00003D
:1017F00028050800FFB589B00D4600206946059010
:1018000008720B98000A009004F0C2FB07460B9880
:1018100004F0F2FA00287DD00B982978000A8400A1
:10182000784E012963D0042904D0062948D007291D
:1018300068D125E03059C17B032901D0042961D149
:10184000697800291AD040681022A91C04F04AFACD
:10185000002F06D03159C87B032807D0042808D0B0
:1018600050E03059C07B032803D04BE00B20C873F5
:1018700048E00521009804F097FB43E00120B6E022
:101880003059C07B0E283DD1009804F07BFB00212D
:1018900003E02A18401C9170C0B21028F9D3688A5E
:1018A00069460883294606A808221431023004F04C
:1018B00019FA06ABAA1C3946009804F07BFB21E01C
:1018C0003059C07B0F281DD1AA1C0A21009804F0B2
:1018D00077FB002F04D03946009804F077FB11E025
:1018E00000231A463946009804F076FB0AE0012FDF
:1018F00008D10B9804F080FA01281CD0002801D0F0
:10190000022005906846007A002811D002AA05211D
:10191000009800E00CE004F053FB6846027A602077
:1019200002436846027201233946009804F054FBD2
:1019300005980DB0F0BD3059C07B0228E2D168781F
:10194000002851D002210B9804F07AFA305907226E
:101950004068A91C173004F0C5F9E878002804D1C4
:1019600030594068407C01283AD0009804F03AFB96
:10197000002837D0297A009804F03AFB002833D0A9
:10198000009804F03BFB0121009804F03DFB002887
:101990002CD030594068417E00292BD0042929D011
:1019A000C17E027D1140C17630594068017F427D81
:1019B000114001776846007A0028A7D130590221EA
:1019C00042680098173204F0FBFA30594168403100
:1019D000897B002913D004210098FFF79AFE91E734
:1019E000022004E0062002E0082000E0032069460F
:1019F00008728BE70021C17630594068D9E70B2186
:101A0000C1737FE72805080010B50C4604F002FBFF
:101A100021888A004F4989580968002902D04E4B15
:101A2000C968995010BDF8B50E461046150A04F065
:101A3000E3F9AC00474F002817D0142815D015281B
:101A400009D038596030C07BC00606D53D212846F4
:101A500004F050FA09E0022008E004F0E1FA01285D
:101A600003D131462846FFF799FC0020395909680F
:101A7000002902D0384AC9681151F8BDFFB50F4698
:101A80001546110A334A8800125881B012681E4662
:101A9000002A01D0D46803E02F4A002314581350C1
:101AA000002C18D0201F42882C4B9A4213D100885A
:101AB000602810D12046403002898A420BD18088AC
:101AC000002808D0A068002802D0204604F0AEFA12
:101AD000204604F0F5F833462A463946019804F0CA
:101AE000ABFA05B0F0BD70B510460D46140A04F00F
:101AF00083F9002819D0142817D015280BD01549C0
:101B0000A00008586030C07BC00606D53D212046A5
:101B100004F0F0F909E0022070BD04F081FA012818
:101B200003D129462046FFF76BFC002070BD70B53D
:101B30000B480378021D00210A4D07E0CC00165D1A
:101B4000012E01D12418A560491CC9B29942F5D3D0
:101B500070BD00004C0308007424080038830000A6
:101B600004060800D06A0020052000070188302202
:101B70001143018001880322114301807047052031
:101B8000000701883022914301800188890889007B
:101B90000180704700280AD0411E4840C003010C54
:101BA000002001E04908401C0029FBD100E0102082
:101BB00080B27047FEB500217C4D00220020282312
:101BC0004B435B1984001A51401C0A28FADB491C5C
:101BD0000429F3DB02F082F8744F0021083F3960DA
:101BE000796000250024724968000E5A0120A04047
:101BF00080B206421DD02820294641436B48081870
:101C0000A1004058411C02D10195009400BE00285B
:101C10000CD0C117224604F015FA2A0104F012FA7A
:101C20003A687B681043194338607960641C0A2C59
:101C3000DCDB6D1C042DD5DBFEBDF8B504460D467E
:101C400016461F462A460120002104F0FBF9220116
:101C500004F0F8F9554A083A1368526818401140E0
:101C6000084300D100BE032C00D104245149600177
:101C70004018690008183E43C680F8BD70B5044698
:101C80000D462A460120002104F0DCF9220104F06F
:101C9000D9F9464B083B1A685B6810401940084365
:101CA00000D100BE032C00D1042442496001401839
:101CB0000121A940818070BD70B504460D462A46B9
:101CC0000120002104F0BEF9220104F0BBF9374BDA
:101CD000083B1A685B6810401940084300D100BEF9
:101CE000032C00D104243349600140180121A9408C
:101CF000418070BDFFB581B00A9E05460C4617466F
:101D000022460120002104F09DF92A0104F09AF9ED
:101D1000264A083A1368526818401140084300D117
:101D200000BE002E04D021462846FFF7C5FF03E081
:101D300021462846FFF7A2FF3A4621462846049B43
:101D4000FFF77BFF05B0F0BD70B5012513382C46B9
:101D50008440A0B2FFF71EFF85401748C189A14308
:101D60000D43C58170BD70B505462C46133C042C4F
:101D700009D82846FFF7E8FF0C49A000A031095810
:101D8000002901D0884770BDE906C90E01208840AE
:101D90000A49086070BD1320E5E71420E3E7152029
:101DA000E1E71620DFE71720DDE70000289000209C
:101DB000E06A0020003000500014005080E200E093
:101DC0008307FF22DB0E9A408907090E99400028FD
:101DD0000BDA0007000F0838830844489B001818E6
:101DE000C36993430B43C3617047830840489B001A
:101DF0001818036893430B430360704710B5FFF74F
:101E0000BEFE052109078888C30B3A48024618D050
:101E1000394C23885B0714D50078800710D52088BB
:101E20000221084320802088400840002080536819
:101E3000002B05D0605E0421615E0A22A25E9847F5
:101E400010BD8988C906FBD50078C007F8D02B489B
:101E500001218180018880239943018090680028B6
:101E6000EED0804710BDF8B505242407A5881026BC
:101E70003543A580214E00243481D2B272800022E5
:101E8000D5000446EC40E7B25400A41967810F4620
:101E9000EF40FDB26582521C042AF1DBF489032273
:101EA00012020004800F944300020443F481F08A7C
:101EB0000904890F904309020843F0820124B48089
:101EC0000F48650205609806800E80303080012141
:101ED0000920FFF775FF0748017821430170094881
:101EE0000560F8BD034988607047000000ED00E020
:101EF00000E400E08C2408000002005000010050C3
:101F000080E200E000E100E008430121890303468C
:101F10000B4333490B80334B18430880092002439D
:101F20004A8070472E4A11880F239B01000799436E
:101F3000800D0143118070472949002008807047B7
:101F4000294827490A8802231A430A80401E421C56
:101F500002D00A889207F9D4002008814889704786
:101F60000AE000BF00BF00BF00BF00BF00BF00BF4E
:101F700000BF00BF00BF00BF401E411CF1D1704731
:101F800070B50446022251024E003046FFF7BCFFF6
:101F90001420FFF7E5FF002C03D00920FFF7C2FF54
:101FA00002E00720FFF7BEFFFFF7CAFF054601204A
:101FB000FFF7D6FF022200213046FFF7A5FF002CD5
:101FC00003D00920FFF7AEFF02E00720FFF7AAFFCA
:101FD000FFF7B6FF4219FFF7AFFF104670BD0000D4
:101FE0000015005001400000A086010008B58921BD
:101FF0000520000701810121694A490311800188F8
:102000008022114301800188890889000180654888
:10201000018A02221143018200F0CEF904F018F87F
:1020200004F01CF80020009003E069460888401C7A
:102030000090684600889128F7D308BD08B55A4833
:102040000021018041805A4A584BD380FF23D2336C
:102050001381C180C3205080564A0820108000910F
:1020600003E06A461088401C00906846008891286A
:10207000F7D3009103E06A461088401C0090684640
:1020800000889128F7D3009103E069460888401C36
:102090000090684600889128F7D308BD464A5080D2
:1020A000918001201080D088C007FCD17047F1B525
:1020B000FFB0FFB08EB003AD0295A81C0190394867
:1020C000008AFFAA1063FFF791FF37480188FFAA33
:1020D000D162418891623649CB8853620B89136281
:1020E000C388D361408B90613448408850614888F0
:1020F0001061FFF7A3FF00230024FF2103A8FFF7CF
:10210000CDFF002600210020029A019D125C2D5C6B
:10211000D207D20FED07ED0F6A403546761CAA4074
:102120000A43F6B2D1B2082E07D11A46FFAD6D6B45
:102130005B1C9BB2A95400260021103080B2FF2204
:1021400092009042E0D9641CA4B2022CD5D3FFAA1D
:102150001449106B08821749002008801248D16A80
:102160000180916A41801249526ACA80FFAA126AAC
:102170000A81FFAAD269C280FFAA92694283FFAA9C
:1021800050690E4A5080FFAA106948800520000758
:1021900001888022914301807FB07FB00FB0F0BDF5
:1021A00000020040E0300050002400508080000019
:1021B00060280050202000500035005000260050BC
:1021C00002480068002800D00047704768070800F0
:1021D000594A5A4B09E0196810690170401CD168CE
:1021E000491ED1601061002905D05869C007C00F91
:1021F0000028F0D170470020106159684908490053
:10220000596051690029F5D0506108474A480022B9
:10221000C260026149498B885B085B008B80416921
:10222000002902D0426101200847704730B4434C76
:10223000424B414A603409E050680178401C196003
:102240001168491E11605060002906D0A08B8007DC
:10225000C00F0028F0D130BC704700205060596892
:102260000224A143596091680029F4D0906030BCE9
:10227000084730B5314A93898024A34393810723CB
:1022800013810023938095892543958193809380C2
:10229000108091819089A04390812949A001086014
:1022A000284A1168FF242402A143440021431160FD
:1022B000234980390860244908601F480376036178
:1022C000C3604360036030BD1C49A02008614869B9
:1022D0008006C00F0028FAD048694006C00F0028C9
:1022E000F5D0704710B5144C21606060A260FFF714
:1022F0009DFF6068002805D010494868022290437D
:102300001043486010BD0D4988680007000F012880
:1023100011D002280ED004280BD00C280BD106486F
:10232000007E012807D148690006C00F002802D0AE
:102330006CE74DE77AE770479824080000110050D9
:1023400080E100E00CE400E080E200E00248006888
:10235000002800D0004770476C07080030B591484E
:10236000914BC40521888025294321808F494A89C2
:10237000120702D4401E421CF9D18D490120086089
:102380008C49188808808C49588808802088A84380
:10239000208030BD00207047704770477047002094
:1023A000704701218907086B0722104308637047B3
:1023B000704782480078704730B58249804808608D
:1023C00081494C200880804C804B203C23828149ED
:1023D0007F4848808149804808807F48193048807C
:1023E000222048818120800008827D4848827D48E3
:1023F00008837B4811304883784A7B48203290809C
:1024000041227A4812018280794AC280784D103583
:10241000C58102824282921C82826A1FC282FF228E
:1024200046320283734A4283734A592010807248AD
:10243000724D2030058043254580714D5582D5224F
:102440008280FF22D33202816E4A42816E4A8281AB
:102450006F4A6E4810805C486E4A60384280C2887D
:1024600010252A43C280654A0A3A0281564D6A4ABB
:10247000403D6A806382082242814F485E4A00885C
:10248000403A10824B48654A00881080FFF791FF60
:10249000002801D03020088330BD4008704700B5C7
:1024A0008BB000215E4A42625E4A82625E4A4261AD
:1024B0005E4AC2625E4A02605E4A02625E4A4260F0
:1024C0005E4AC2613E483F4A10603E484038026B57
:1024D00003129A430263426B1F231B049A43032394
:1024E0001B04D218426356480368C2129343036028
:1024F000026803139A43026001A802E04154491C98
:10250000C9B22829FAD301A928224E4803F0EAFBD0
:10251000FFF752FF03F028FC4B490880002003F02E
:1025200029FC03F02DFC0BB000BD10B50F221202E8
:1025300023482449086023484038416B1F231B046B
:10254000994303231B04C918416300060168C908A5
:10255000C900016005200007018989088900491C1C
:1025600001810189082319430181018A11430182F4
:102570000E484189890504D50188782291430831A4
:102580000180FFF719FF3148006F0078002804D060
:102590002F4800880C496039C880012003F020FCD6
:1025A00010BD0000A0860100087F0400200000503C
:1025B00000800040560208004A030800B4240800C6
:1025C0004C05540780000040602C00507F7F0000C5
:1025D000AC2900000022005009090000002400502E
:1025E0002204000030D00000EE1100000025005051
:1025F0002E02000044200000402800500D950000ED
:1026000002420000E4DC0000109200005378000059
:10261000002A00508B1000009DD5000000260050BD
:1026200095230020992300209F230020A32300202E
:102630009B230020B12300209D2300209B24002009
:10264000000200402000080078040800E00100209B
:102650005204080070B50125AD07AC6B2046FEF7AB
:102660006AFCC44903F032FB27221201511A0029E7
:1026700000D10121C04A50601160286B08218843B5
:1026800008432863BD480460BD480068002802D0A4
:10269000A04200D200BE70BDFFB50024002102910F
:1026A000B8490A68002A61D0114640318B7C002B62
:1026B0005CD0B54B012815D0108D0007000F1A46CD
:1026C000803A0125126F4000ED044019105A800B2A
:1026D00003906A46107B002848D06846007B01289A
:1026E00003D00DE0D86C02900AE008894E256843BB
:1026F000A64D1A684019105A000ACA7C801A029026
:102700006846007A002832D0A148007BA04A603A8F
:10271000956E05E02E224243AC18401C4007400F46
:102720006F463A7A561E0296F4D2A2785206520E9C
:1027300003926C46227BD206D20E01929A692E2316
:102740005843924B463BC018105AC006C00F009029
:102750002078002803D168460079002806D0087D3B
:10276000002803D1C87D08221043C875FFBD087D2D
:102770000028FBD1C87D08221043C875FFBD10B5E5
:10278000052000074189890708D041898908890007
:10279000418180494A88520852004A80018980223A
:1027A00011430181018A042291430182818A8907B0
:1027B000FCD503F059FC012080070169490700D5C9
:1027C00000BE01694907FCD510BDF8B5724EF0880E
:1027D00000282DD10120F0807049082008800527AD
:1027E0003F077889800720D0B88A400701D501F0DB
:1027F000AFFA684D2888802108432880684CFF2064
:10280000608004202080FFF7AFF97D21C900E088B7
:10281000A288000480188842F9D905202080B08859
:10282000788029888020814329805E4910200860B3
:10283000F8BD70B5FFF7A3F9FFF7A1FF564C0025CF
:10284000E58005200007418A802291434182534858
:102850000189490849000181D00581690422114399
:10286000816103F007FC4F48102180300126016090
:1028700003F006FC03F00AFC2570464840898005F9
:1028800010D5607800280DD1667047480088C007D1
:1028900008D10120FFF774FB8B218900884201D900
:1028A0000220607070BD10B53B490120887003F0B4
:1028B000F3FB10BD10B503F0F5FBFFF7F4FF36494D
:1028C0000120087010BD01208007008A000600D595
:1028D000E9E7704710B50120FFF7DEFE03F0E8FBE3
:1028E00010BD10B50124A407208A000719D50220C5
:1028F000FFF7D2FE03F0E2FB2068400040086100D1
:10290000084320602068C00F0028FBD11A4980319D
:102910000868C0B2002801D0012008601E490420C8
:10292000087010BD70B5214800888506AD0E20489E
:1029300044681548016F0878002802D1284603F042
:10294000C3FB1C480089C00506D5200604D5E00756
:1029500002D0284603F0BEFB0F48210603D5E1074D
:1029600001D003210170210403D5E10501D5022125
:10297000017070BD7102000040000040C4240800D6
:10298000C02408006C030800E00100204A00080091
:102990003803080020000050B6240800003300501F
:1029A0000016005000E200E000150050002000502A
:1029B00000020040002C005010B5C002642103F05A
:1029C00085F9002800D0401E10BD08B503F0D3F8EB
:1029D0006249096803F092F803F0D4F80090009877
:1029E00008BDFEB500245E4E706D01900025FEF717
:1029F000D8F95C4F002802D13879022801D1002093
:102A00000190FEF7D4FA00280DD103F069FB0028ED
:102A100009D00124F878002805D005200007808A15
:102A2000C00701D0042496E003F068F900287DD1A6
:102A30004D488069002801D0706D0190019EB978E1
:102A400001A803F053FB002870D04648817801A804
:102A500003F066F900287ED0002000900196FF2147
:102A60002D310126B607306A8842FCD300273D4845
:102A7000817801A803F03AFB002807D03948817813
:102A800001A803F04DF9002800D00127002F62D0E3
:102A90000198002804D00099002901D0401E01901F
:102AA00000218320314A1278022A00D1B520304A11
:102AB0001378012B00D1213011700F21F26B920A93
:102AC00092020A43F263F16B2A4A800211400143E9
:102AD000F163F06B3721C002C00A89050843F06337
:102AE00004240198002801D0001D01900198FFF7EF
:102AF00063FF214908601B490979002900D00121A1
:102B000003F0FAFA1D48C06A8047FEF77DFA0028F4
:102B10000AD0052000070188302211430180018876
:102B20000322114301800125306B00E013E0000413
:102B3000C00F0028F8D012480168C905FCD5002D47
:102B400001D0FFF71CF803F0DDFA0520000701892A
:102B50008022914301812046FEBD000070240800C0
:102B600060020020C6060800A805080054020800FC
:102B7000B7240800FF03E0FFC02408001C0708007A
:102B800000020040F8B505460E4610461F466A880A
:102B90002988062303F0F0F90446287903F0B8FAEF
:102BA000208026716780204603F0F8F9F8BD70B5E3
:102BB0000D46144642880079042301020C31104866
:102BC00003F0DAF9002D01D0132100E01221017089
:102BD000448003F0E3F970BD10B500F013F810BDA8
:102BE00070B506460C461546362003F005F9022856
:102BF00005D1E2B236232946304603F08FFA70BD84
:102C00000D30000010B50A21304803F08DFA30492C
:102C1000362003F08FFA0021362003F011F910BDA1
:102C2000F8B507460E46294D18232988362229482B
:102C300003F0A2F90446287903F06AFA20803246AC
:102C40003946201D03F04EF86680204603F0A6F9B1
:102C5000F8BD70B505461D4E1E4831880423362246
:102C6000401C03F089F90446307903F051FA2080C2
:102C70006580204603F092F970BD10B504461348F4
:102C80000123018813483622401D03F075F90470B2
:102C900003F084F910BD70B50C4C0021E08803F0FE
:102CA0004FFA0C48218802233622401E03F064F9B3
:102CB0000546207903F02CFA2880284603F06EF9A7
:102CC0000121362003F0BCF870BD0000C8240800C4
:102CD0005C6B002002D800007CB51E466A4C362092
:102CE00060806A4800230092019008221946A01DC6
:102CF00003F02CFA0546E088002103F021FA0121B7
:102D0000362003F09DF8012336223146604803F057
:102D100033F9057003F042F900207CBD38B50C464C
:102D200001200090584D2B80208803F015FA28715F
:102D3000FF2808D0A178E88803F002FAE07828722A
:102D4000002809D00AE0524A1B23DB02121D892108
:102D50004D48FFF717FF0CE000200090E8886A4616
:102D6000401D80B2022103F0FDF90221362003F05C
:102D700067F8002038BD70B50C460025424E30790A
:102D800003F0C6F92188884211D1307A80070FD527
:102D9000F0886188001D80B2221D03F0E3F9F088FD
:102DA0000121001D82B23046FFF701FF00E08125BE
:102DB000002D02D02846FFF760FF002070BD10B53F
:102DC0000878132809D1334800220378002B00D15A
:102DD000427002704878FFF750FF002010BDF8B530
:102DE0000C468022284F180A3979884238D1208829
:102DF000F98823460833411A0093022902D0052995
:102E00002ED10CE0E179002907D06188009A03F007
:102E1000A9F961880098FFF703FF002220E001264E
:102E2000617A257A09020D43002D01D0022D17D1B8
:102E30000221009A03F096F9022D08D00026387A74
:102E4000FD2108403872002E06D0012005E0387AB6
:102E5000022108433872F6E70020FFF7FAFE00224D
:102E6000A079012803D12188387903F081F9002065
:102E7000F8BD10B50449180A0979884201D1FFF755
:102E80000AFF002010BD0000C8240800E86A0020E6
:102E900005D80000D224080010B500F009FA10BDD2
:102EA00010B50C2250432E4A80188078FF2803D09A
:102EB000088800F069F810BDFFF7EEFF10BDEBE7E2
:102EC00010B500F00EFA002801D0FFF7E5FF10BDA5
:102ED0007047E1E710B500F0D6FD10BD38B50446E7
:102EE00000F012FD009004226946204600F0F7FD34
:102EF000204600F00DFE38BD10B500F037FE10BDC5
:102F000010B504464978204600F007FD204600F041
:102F100065FE204600F052FE10BD10B50446204666
:102F200000F09CFE002811D02046242148430D4982
:102F30000022401820308178204600F0A7F9204672
:102F400000F0A6FE204600F079FE10BD204600F0FD
:102F5000B4FE204600F072FE204600F07DF910BD60
:102F6000F0240800562508000021EE4B05E08242BF
:102F700001D101207047491CC9B20C224A439A5C16
:102F8000FF2AF4D10020704770B505460024E54EB5
:102F90000FE080198068002809D02046641C0C21AD
:102FA000484380198168E4B22846884701E0641CE0
:102FB000E4B220460C214843315CFF29E9D10024CA
:102FC000D84E0C3609E089198968002903D0FFF72B
:102FD000CBFF002808D0641CE4B221460C204143FA
:102FE000705CFF28EFD170BD2046641C0C21484363
:102FF00080198168E4B228468847EEE770B5C94A6F
:10300000C94C0FE080184068002809D06078491C3E
:1030100061700C214843801840688047002070BDD3
:10302000491C617060780C2301465843135CFF2BE8
:10303000E8D1BC4D0C350AE049194968002903D094
:10304000FFF792FF00280DD02078401C20702178D7
:103050000C204143685CFF28EED100206070207096
:10306000012070BD2078411C21700C21484340197B
:1030700040688047002070BDFFB581B00A9F0446BC
:1030800015461E46304603F031FB0090267021465F
:103090003846009A03F072F8002803D000BE0020E2
:1030A00020700CE02078A84200D900BEA84200D3CE
:1030B0002846C2B222700099029802F013FE0098CE
:1030C00003F0EAFA05B0F0BD70B505460C461046AF
:1030D000611C01700921417022461946801C02F0D2
:1030E00001FE2878A41C0019287070BDF0B597B0B7
:1030F0008D48C06800285CD1502332220D218B48B6
:1031000002F03AFF0446884DEC600E212170002742
:103110006770A7808649A181E1810721217401217F
:103120006174A77421460B2014310090481E20239F
:103130001C2216911590FFF79FFF214631310C207C
:1031400014910090481E20231F221390FFF794FF34
:10315000E8681A22C17C511ACDB22030007C1D21B2
:10316000081AC6B21297284630430AD03E20129061
:1031700002AA12A9022003F001F8002801D000BE23
:10318000129710A8017A002913D08D4207D3E27C50
:10319000169802AB12181598FFF796FF09E08E42B9
:1031A00007D32034227C149802AB12181398FFF72F
:1031B0008BFF5D48C06817B0F0BD70B55A4DA86868
:1031C000002821D15948222332220D210A3802F049
:1031D000D3FE032101700446AC600A20607051499F
:1031E00010222339A01C02F07DFD0021618221758F
:1031F00061751720E0820820208310206083A1835E
:103200006420E08320342170A86870BD1CB5464856
:103210000C21183002F088FF01240194009401AAC7
:103220006946352002F0AAFF002800D00194002052
:103230003D4A18320C21414389180C71401CC0B220
:103240000028F7D037493220243102F073FF0021E3
:10325000322002F0F5FD1CBD10B50446002C00D054
:1032600000BE21020E3102233222324802F084FED7
:1032700001210170132141700C2254432A4A00217C
:103280001832A218D17002F089FE10BD70B50D463B
:103290001446010227480E312C233222801E02F0F0
:1032A0006BFE034620331D725C7202F077FE70BD28
:1032B00010B5FFF71BFF02F071FE1B490020C8602C
:1032C0000221322002F0BCFD10BD10B51A4B9A420B
:1032D00001D91A4602E0002A00D1012202F054FF6F
:1032E00010BD10B50121322002F0AAFDFFF786FEC5
:1032F00010BD83E610B5FFF760FF02F04FFE0A49EC
:103300000020886010BD10B50020074BFF22243339
:10331000012441005A54C9184C70401CC0B20A28FC
:10332000F7D310BDF86B0020D82408000E3400003D
:103330004C0400000438000030750000FEB517464C
:10334000089A1E460724584D00923B460195029468
:10335000324600F0DFF8FEBD10B5104602F04CFD1D
:10336000002809D1012332220D21504802F004FE29
:103370000121017002F012FE002010BD10B5087886
:103380000F2821D008DC01280DD002281CD00328EA
:103390000FD00E2818D112E0102815D0112813D004
:1033A000122811D10FE0487800280DD1FFF7A2FFB5
:1033B0000AE04878002807D1FFF782FD04E048784A
:1033C00000F0F6FC00E04878002010BDF8B50E468D
:1033D00010461C4602F010FD02282BD1240A002CB6
:1033E00000D000BE20460C2148433149074645180D
:1033F000AC70FF2C1AD00120E8700521322002F0B9
:103400001FFD2B483188C153707A68713146A81D61
:1034100006220A3102F066FC242026496043401847
:103420002030817800222046FFF730FF31462046C9
:10343000FFF736FD0020F8BD70B50C461546207824
:103440000A280BD1284602F0D7FC042806D1607860
:10345000002803D10521284602F0F2FC002070BDAF
:1034600010B50C46104602F0C7FC032803D005280F
:1034700001D0042802D12046FFF721FD002010BD15
:1034800010B50C46104602F0B7FC012808D1207890
:10349000002805D1FFF72DFF002801D0FFF719FD07
:1034A000002010BD00207047806C00200234000016
:1034B000F024080056250800FFB583B00024214FF2
:1034C00002AEA00000963D5803A80FC8A8470028E8
:1034D00005D0641C052CF4D3002007B0F0BD68466D
:1034E000007AFAE710B5002A0DD0521E002A0FDB31
:1034F000154CD300CB5A834201D0A34205D1D00052
:103500004018406810BD002010BD521E002AF0DA9D
:10351000002010BDFFB581B016460A9D0C9A0B998C
:103520001F460198FFF7DEFF0446200008D033460F
:103530003A4602990198A0472870002005B0F0BDD6
:103540000120FBE7C86C0020FFFF0000401E092897
:1035500007D8264A80001158002903D000231350B1
:10356000084700BE704710B521494018C0B2FFF7A8
:10357000EDFF002010BD10B54A8808781C4949426B
:10358000401880B2322102F0FFFD002010BD087803
:10359000411E092909D8401E144980000A58154BBC
:1035A0009A4203D100220A5000E000BE002070477A
:1035B00070B5049C0E4D6D1C45190DD0012D06D023
:1035C0000B4D6D1E45190A2D0BD3012070BDFFF761
:1035D000DEFF2070002070BDFFF7CDFF20700020BF
:1035E00070BDFFF7C0FF2070002070BD14250800DB
:1035F000FE37FFFFF93500207047000012494018E0
:10360000052801D240B270470020C043704710B572
:10361000FFF7F4FF002808DB0C4A8000115800294E
:1036200002D000231350884710BD00BE10BD10B556
:10363000029C05494118052901D3012010BDFFF75F
:10364000E6FF0020207010BDF337FFFF4025080083
:103650006F4870498A6A8262886270476E49086062
:10366000704710B5FFF7F4FF01216C4800F00CFC27
:103670006A4C2068806980472068406980472068DC
:10368000FFF7ECFFFFF73FFE0020FDF742FB10BD08
:1036900010B50446362104233222880202F06CFC65
:1036A0000480012181700021C1705D490C8002F00D
:1036B00075FC10BD10B5012332223621594802F0A5
:1036C0005BFC0021017002F069FC10BD52480068EB
:1036D000704770B5504E361DB088F188401A84B2DC
:1036E000142C00D91424002C1AD04E48182332224E
:1036F0003621801C02F040FC05464948008828809D
:10370000F188306822464118281D02F0EBFA6C80DF
:10371000284602F043FCF0880019F080012070BDBB
:10372000FFF7D4FF8268B18830689047002030608E
:10373000B080F08070BD3848001D8188C0880029A5
:1037400001D1002803D0002903D0814201D10120FA
:1037500070470020704710B504460A46002C0ED072
:10376000002A0CD0FFF7E7FF2B4B1B1D002808D0C9
:103770001C609A800020D880FFF7ABFF10BD0020AE
:1037800010BD9A88D98828A0FDF7DCF8002010BD6C
:10379000F8B507460C46142C39D81F4D00260C35B9
:1037A000A888002808D1788800F028FBA880EE803F
:1037B000032102F07FFA2860A988E888091AA1424B
:1037C00000D20C46296822460818394602F08AFAC7
:1037D000E888001980B2E880A988814217D8FFF7ED
:1037E00075FFC268A988286890470446FFF76EFFF6
:1037F0008268A98828689047FFF768FF214600F093
:103800000AFBAE80EE80FFF761FFC0698047F8BD1C
:10381000646E00208407080070070800BC070800D9
:103820005425080004D800000D0A206F66667365F1
:10383000743A256420256400FEB51746089A1E4692
:103840000724274D00923B46019502943246FFF72C
:1038500061FEFEBD10B50C46104602F0CDFA0128FF
:1038600009D1322201231146900202F085FB217812
:10387000017002F093FB002010BD10B501F0A8F913
:10388000002010BD10B508464188001DFFF780FFDD
:10389000002010BD10B54888002800D0012001F09C
:1038A0002AFAFFF713FFC0698047002010BD10B54A
:1038B000FFF70FFF002010BD10B50C4609A0FDF763
:1038C00041F82168606801F0B5FF002010BD10B517
:1038D00007A0FDF737F802F009F8002010BD00003E
:1038E000DC6C00200D0A20627574746F6E2031004C
:1038F0000D0A2074696D65206F75742072656365AB
:10390000697665640000000010B502F043FC1949B7
:1039100002F046FC1848081810BDF8B50E462421E0
:10392000484316494518AE76002402F033FCC1170F
:10393000090E29190874641CE4B2082CF5D300247C
:103940001027381BB04201DD002007E002F022FC06
:10395000C117090E0918090A0902401A2855641CE2
:10396000E4B2102CEDD302F015FCC117090C28832A
:10397000F8BD0000A0BB0D00A08601005625080080
:10398000FEB51746089A1E4604242B4D00923B466E
:10399000019502943246FFF7BDFDFEBD10B50A78D1
:1039A000180A130002F02EFA08051515150815104F
:1039B0001315FFF78FFA0CE04A78012A01D0002A8C
:1039C00007D1FFF78BFA04E0FFF796FA01E0FFF763
:1039D00097FA002010BD10B5180A1B0A242463436F
:1039E000164C0A781B191C462034022A02D0032ADE
:1039F00018D113E08978A170C90713D0002800D02E
:103A000000BE0C2148430E4941184879D876184623
:103A1000891D1C30062202F065F903E0FFF71CFC4B
:103A20000020A070002010BD10B5180AFFF775FA2D
:103A3000002010BD00207047146D0020562508009E
:103A4000F024080070B5002800D000BE9F4D84000F
:103A50002959002915D101020E311E2332229C481A
:103A600002F08AFA01210170417028510022C270CF
:103A70001023437103238370017102720422827147
:103A8000C171285970BD10B50446002C00D000BE8D
:103A90002046FFF7D7FF02F081FA00208B4AA100F1
:103AA000505010BD70B5002800D000BE874D840076
:103AB0002D1D2959002910D101020E311E23322259
:103AC000834802F059FA0421017001214170285104
:103AD000801C10227F4902F005F9285970BD70B58D
:103AE0000D461446002800D000BE01020E311E23F0
:103AF0003222774802F040FA04210170012141701E
:103B0000102C04D222462946801C02F0EBF870BD2E
:103B100010B50446002C00D000BE2046FFF7C2FFBF
:103B200002F03CFA694A0020A100121D505010BD5D
:103B300070B5002800D000BE644D840008352959B6
:103B4000002911D101020E311E233222604802F0F9
:103B500013FA062101700121417028515D49801C32
:103B60001022103102F0BEF8285970BD10B504467D
:103B7000002C00D000BE2046FFF7DAFF02F00EFA5C
:103B8000524A0020A1000832505010BD70B50028E4
:103B900000D000BE4D4D84000C35295900290BD1B1
:103BA00001020E311E233222494802F0E5F90721B5
:103BB0000170012141702851285970BD10B504468B
:103BC000002C00D000BE2046FFF7E0FF02F0E6F92F
:103BD0003E4A0020A1000C32505010BD70B5044682
:103BE000002C00D000BE2046FFF7D0FF0546242061
:103BF000444339482418A07E2877208B68822146C8
:103C0000284610310822143002F06CF821461022A8
:103C1000A81C02F067F870BD70B52C4D84001035FB
:103C20002959002908D1010229480E3112233222D4
:103C3000001D02F0A1F92851285970BD10B50446A5
:103C4000002C00D000BE2046FFF7E6FF02F0A6F9E8
:103C50001E4A0020A1001032505010BD70B50D4614
:103C6000242148431C4944182220005DC0070DD080
:103C7000204610300822A91C02F02EF8002805D199
:103C8000208B2988884201D1012070BD002070BDA1
:103C900010B50446002C00D000BE2046FFF7BCFF44
:103CA0000121017024214C430B4961188A7E427422
:103CB0001022401C02F016F810BD10B5002800D0EC
:103CC00000BEFFF7A9FF0021017010BD7C25080090
:103CD000143800003B6D00205625080070B5304DAB
:103CE0000026286BF643002801D0314600E0012170
:103CF0002963C8178A0B80042A4C10432268890460
:103D000063681143184321606060686B002800D12C
:103D100001266E63F017710BC00408432268F1049A
:103D20006368114318432160606070BD38B500249A
:103D3000032204231202022101200094FDF7DAFF7E
:103D400003230022194601200094FDF7D3FF38BD5C
:103D500010B505242407208A022188432082A08AE6
:103D60000007FCD510484188FF22013211434180F1
:103D7000FDF748FAFFF7DAFF0C480068002801D089
:103D800040698047A08840210843A0800321092082
:103D9000FEF76FFA608A20210843608210BD0000A0
:103DA000289000202090002020000050BC07080030
:103DB00010B5FFF78DF810BD0146384802E00268E3
:103DC0008A4202D0806A0028F9D1704708B5344889
:103DD000009068460078122801D0002008BD01201C
:103DE00008BD00B50146FFF7F1FF002801D00846E5
:103DF00000BD080A0906090C084300BD00B50146CC
:103E0000FFF7E4FF002801D0084600BD080A0906B4
:103E1000090C084300BD70B506460D462C460A3411
:103E2000230001F0EFFF0A2A26221E1A16120E0A9C
:103E3000062D1CA0FCF786FD22E020A0FCF782FDE9
:103E40001EE023A0FCF77EFD1AE028A0FCF77AFD17
:103E500016E02BA0FCF776FD12E030A0FCF772FD17
:103E60000EE039A0FCF76EFD0AE041A0FCF76AFD08
:103E700006E049A0FCF766FD02E04EA0FCF762FDFB
:103E800032692846904770BD00B50346186800287F
:103E900003D10846FFF790FF186000BD84070800B3
:103EA000785634120D0A21206572726F723A2073AF
:103EB000797374656D206572726F72000D0A21202E
:103EC0006572726F723A206E656564417574680040
:103ED0000D0A21206572726F723A207365737369DF
:103EE0006F6E54696D656F75740000000D0A2120B6
:103EF0006572726F723A206465636F6465000000DA
:103F00000D0A21206572726F723A206465766963CA
:103F1000654973426C6F636B000000000D0A21203D
:103F20006572726F723A2073657276696365556E59
:103F30004176616C69626C65496E4261636B677260
:103F40006F756E64000000000D0A21206572726FAB
:103F5000723A2064657669636550726F746F566556
:103F60007273696F6E4E6565645570646174650047
:103F70000D0A21206572726F723A2070686F6E654B
:103F800050726F746F56657273696F6E4E656564BB
:103F900055706461746500000D0A21206572726FAE
:103FA000723A206D6178526571496E51756575651B
:103FB000000000000D0A21206572726F723A2075B0
:103FC0007365724578697457784163636F756E7471
:103FD00000000000344A0021C30702D040085040CE
:103FE00000E04008491C0829F6DB7047F8B50D468B
:103FF0001646002D01D0C44344E00020F8BD2878C7
:104000006040C0B2FFF7E6FF210A484004466878E6
:104010006040C0B2FFF7DEFF0746200A4740A8789D
:104020007840C0B2FFF7D6FF390A04464C40E87822
:104030006040C0B2FFF7CEFF210A07464F40287903
:104040007840C0B2FFF7C6FF390A04464C40687991
:104050006040C0B2FFF7BEFF210A07464F40A87973
:104060007840C0B2FFF7B6FF390A48400446E87905
:1040700008356040C0B2FFF7ADFF0146200A41405D
:104080000C46083E082EBADA002E0AD028786D1C9D
:104090006040C0B2FFF79EFF210A48400446761EEA
:1040A000F4D1E043F8BD00002083B8ED4107490F8B
:1040B000020A01D04005410F0846704770B504461A
:1040C000237801205B065B0E0EE0884202DB0020B5
:1040D000C04370BD05280CDA255CC6006D066D0E68
:1040E000361AB5402B43401C2518203DED7F2D0688
:1040F000EBD4136070BD08B503460020002A07D03A
:10410000012A0DD0022A0DD0052A14D0401E08BD68
:1041100002469A5C401C1206F9D58842F8DB08BDBD
:10412000082008BD0020009018466A46FFF7C6FF29
:104130000099401808BD042008BDF8B505460E4694
:104140001746002422E02046641C285C06E0214635
:10415000695C0002641C4906490E0843291920398C
:10416000C97F090601D5B442F1DBB84201D120462E
:10417000F8BD80B2FFF79AFF0246311B2819FFF7FE
:10418000BAFF002801DA641C00E02418B442DADB2C
:104190000020C043F8BD01608260704710B50A4638
:1041A00081680068FFF7C9FF002801DA002010BD10
:1041B000012010BD38B504460A46A1682068FFF703
:1041C000BCFF002801DA002038BD00210091A16861
:1041D0002268091A10186A46FFF770FF009838BD68
:1041E000E8E7E7E7F8B504460B4616461A46A16825
:1041F0002068FFF7A2FF0546280001D50020F8BD82
:10420000A0686A46411B20684019FFF757FF401914
:104210000099316021680818F8BDE3E7E2E770B55E
:1042200004460D46284600F0A3F8A268E168521A39
:1042300082420BDB62685218022802D1290A1170EF
:10424000521C1570E1680918E16070BD0020C04380
:1042500070BD7CB5054600200090019000246A46A0
:1042600080234806400E1055012C04D41019203824
:10427000C67F1E43C677C909641C002901D0052CDE
:10428000EFDBA968E868091AA1420ADB69682246DF
:104290000818694601F026FDE8680019E860204624
:1042A0007CBD0020C0437CBD416082600021C160B4
:1042B0007047C068704770B5064615463046FFF730
:1042C000AEFF002807DB044629463046FFF7C1FF52
:1042D000002800DB201870BDEDE7ECE770B5044660
:1042E0001546A268E068121AAA4209DB6268101833
:1042F0002A4601F0F7FCE0684019E060284670BDEE
:104300000020C04370BDF8B5064615461C46304631
:10431000FFF785FF00280FDB074621463046FFF7F1
:1043200098FF002808DB3F18224629463046FFF751
:10433000D5FF002800DB3818F8BDE4E7E3E710B547
:10434000002A02D04A00C90F51400024C909641C48
:10435000002901D0052CF9DB00F00AF8001910BD86
:1043600010B50C4600222146FFF7E9FF001910BDE9
:10437000000A01D0022070470120704700207047DA
:104380001FB56846FFF790FF6846FFF792FF04B03D
:1043900010BD1FB50A4601466846FFF7FCFE08211E
:1043A0006846FFF7FBFE00281FD00321102001F014
:1043B00081FC0446002020606060A060E06008216D
:1043C0006846FFF70DFF206012216846FFF7E6FE02
:1043D000002808D022460C3212216846FFF71DFF44
:1043E000A060012020712046D1E70020CFE710B562
:1043F00001F066FC10BD1FB50A4601466846FFF78E
:10440000CAFE0321042001F055FC00210160BEE733
:1044100010B501F055FC10BD70B504462068FFF7DB
:10442000ADFF01460A20FFF79BFF054620790028D3
:1044300004D01220E168FFF793FF451900221820ED
:104440002169FFF77CFF4519002220206169FFF7F1
:1044500076FF4519217E00222820FFF770FF4519BD
:10446000607E002804D03220216AFFF779FF4519C9
:10447000264620363079002804D03A20E16AFFF73A
:104480006FFF4519307C002804D05220A16BFFF744
:1044900067FF4519307F002804D05A20616CFFF770
:1044A0005FFF45194820005D002804D06220216D7F
:1044B000FFF756FF4519284670BDF0B585B0044694
:1044C0006846FFF7F1FE2068FFF758FF0646032114
:1044D000304601F0EFFB0746324639462068FFF7C9
:1044E0004FFF0546002D05DA384601F0E9FB284666
:1044F00005B0F0BD33463A460A216846FFF71EFF75
:104500000546384601F0DCFB002D01DA2846EFE7CE
:104510002079002807D012216846E368A268FFF7D7
:10452000F2FE0028E4DB182168462269FFF7D4FE7A
:104530000028DDDB202168466269FFF7CDFE0028F8
:10454000D6DB227E28216846FFF7C7FE0028CFDB96
:10455000607E002807D032216846236AE269FFF7AF
:10456000D2FE0028C4DB254620352879002807D054
:104570003A216846E36AA26AFFF7C5FE0028B7DB66
:10458000287C002807D052216846A36B626BFFF796
:10459000D4FE0028ACDB287F002807D05A216846CB
:1045A000636C226CFFF7C9FE0028A1DB4820005D88
:1045B000002807D062216846236DE26CFFF7BDFE3C
:1045C000002895DB6846FFF774FE91E710B586B0CA
:1045D0000A46014602A8FFF7DEFD0A2102A8FFF7FE
:1045E000DDFD002823D0122102A8FFF7D7FD002807
:1045F0001FD003210C2001F05DFB04460020206049
:104600006060A06001AA0A2102A8FFF707FE0199D5
:10461000FFF7BFFE206000280DD02246083212218D
:1046200002A8FFF7DFFD6060204606B010BD002045
:10463000FBE70020F9E7204601F042FB0020F4E709
:1046400010B504462068FFF7D2FE204601F038FB83
:1046500010BD70B505462868FFF790FE01460A2098
:10466000FFF77EFE04462879002804D01220E9686E
:10467000FFF776FE0419287C002804D01A20A969C7
:10468000FFF76EFE0419204670BDF0B585B00446F4
:104690006846FFF709FE2068FFF770FE0646032113
:1046A000304601F007FB0746324639462068FFF7DF
:1046B00067FE0546002D04DA384601F001FB284666
:1046C00016E733463A460A216846FFF737FE0546A5
:1046D000384601F0F5FA002D01DA284608E720797E
:1046E000002807D012216846E368A268FFF70BFE96
:1046F0000028E5DB207C002807D01A216846A36942
:104700006269FFF700FE0028DADB6846FFF7D1FD9B
:10471000EEE670B586B00A46014602A8FFF73BFDFB
:104720000A2102A8FFF73AFD00287DD0102102A837
:10473000FFF734FD002878D0182102A8FFF72EFDDE
:10474000002873D003215C2001F0B4FA04465C21F8
:10475000204601F005FC01AA0A2102A8FFF75EFD30
:104760000199FFF716FE206000287DD0102102A8D5
:10477000FFF720FD6060182102A8FFF71BFDA06075
:10478000202102A8FFF70AFD0125002805D02021DD
:1047900002A8FFF70FFD20612573282102A8FFF76B
:1047A000FDFC002805D0282102A8FFF71AFD60753E
:1047B0002575302102A8FFF7F1FC002805D0302133
:1047C00002A8FFF7F7FCA061A5755A2102A8FFF720
:1047D000E5FC002807D0224624325A2102A8FFF720
:1047E0001CFD20622577602102A8FFF7D7FC002876
:1047F00008D0602102A8FFF7F4FC014620462030D3
:10480000417205726A2102A8FFF7C8FC002808D08F
:10481000224630326A2102A8FFF7FFFCE0622A201C
:104820000555722102A802E03EE03FE040E0FFF7BC
:10483000B5FC002808D022463C32722102A8FFF7BE
:10484000ECFCA06334200555782102A8FFF7A6FCF4
:10485000002806D0782102A8FFF7C2FC606440203F
:104860000555D84E314600E024E002A8FFF796FC3B
:10487000002806D0314602A8FFF7B2FCE0644820C9
:104880000555D14E02A83146FFF788FC002808D014
:1048900022465832314602A8FFF7BFFC606550201F
:1048A0000555204606B070BD0020FBE70020F9E763
:1048B0000020F7E7204601F003FA0020F2E710B5E8
:1048C00004462068FFF793FD204601F0F9F910BD7A
:1048D00070B504462068FFF751FD01460A20FFF736
:1048E0003FFD05461220A168FFF73AFD4519207BE0
:1048F000002805D0E18900221820FFF720FD451986
:10490000284670BDF0B585B004466846FFF7CCFC7C
:104910002068FFF733FD06460321304601F0CAF94F
:104920000746324639462068FFF72AFD0546002D26
:1049300004DA384601F0C4F92846D9E533463A4648
:104940000A216846FFF7FAFC0546384601F0B8F937
:10495000002D01DA2846CBE512216846A36862687B
:10496000FFF7D1FC0028E8DB207B002806D0E28995
:1049700018216846FFF7B1FC0028DEDB6846FFF728
:1049800098FCB5E510B586B00A46014602A8FFF7C7
:1049900002FC0A2102A8FFF701FC002825D0032110
:1049A000102001F087F90446002020606060A060BC
:1049B000E06001AA0A2102A8FFF730FC0199FFF785
:1049C000E8FC2060002812D0122102A8FFF7E6FBC5
:1049D000002808D022460C32122102A8FFF702FC60
:1049E000A0600120207120461FE600201DE6204621
:1049F00001F066F9002018E610B504462068FFF7BC
:104A0000F6FC204601F05CF910BD10B586B00A46F0
:104A1000014602A8FFF7BFFB0A2102A8FFF7BEFB71
:104A2000002830D0122102A8FFF7B8FB00282CD0B4
:104A30000321102001F03EF9044600202060606050
:104A4000A060E06001AA0A2102A8FFF7E7FB019934
:104A5000FFF7D1FC2060002819D02246083212212D
:104A600002A8FFF7BFFB6060182102A8FFF796FBC2
:104A7000002806D0182102A8FFF7B3FBE08101202F
:104A800020732046D1E50020CFE50020CDE520466B
:104A900001F016F90020C8E510B504462068FFF7BC
:104AA000B7FC00202060204601F00AF910BD10B5C7
:104AB00086B00A46014602A8FFF76DFB0A2102A84C
:104AC000FFF76CFB00282AD0102102A8FFF766FB35
:104AD000002826D0182102A8FFF760FB002822D06A
:104AE0000321082001F0E6F8044600202060606001
:104AF00001AA0A2102A8FFF791FB0199FFF77BFCAD
:104B00002060002811D0102102A8FFF76AFB207155
:104B1000182102A8FFF765FB6071204685E500209B
:104B200083E5002081E500207FE5204601F0C8F8FC
:104B300000207AE510B504462068FFF769FC20469E
:104B400001F0BEF810BD10B586B00A46014602A8B5
:104B5000FFF721FB0A2102A8FFF720FB00281FD046
:104B6000102102A8FFF71AFB00281BD00321082000
:104B700001F0A0F8044600202060606001AA0A212C
:104B800002A8FFF74BFB0199FFF735FC20600028D6
:104B90000AD0102102A8FFF724FB2071204644E52B
:104BA000002042E5002040E5204601F089F8002081
:104BB0003BE510B504462068FFF72AFC204601F0CB
:104BC0007FF810BD01800000018A000000207047BE
:104BD000FE4800210171817041704171C170C18036
:104BE00001814181704710B5F948FDF77BF9012239
:104BF000500214230146FDF736F910BDF8B50746FB
:104C0000F24800268178F64300290ED0C0780028AB
:104C10000BD0FEF790FD002809D0EE4CEE4D207829
:104C20002978084305D03046F8BD3046F8BD3046F7
:104C3000F8BD0026112F0ED1322208231146E74875
:104C400001F09AF90F210160E5A1416001F0A6F998
:104C50000120207028703046F8BD10B51120FFF7F4
:104C6000CDFFFFF7C0FF10BD00B5FFF7B1FFFFF7A5
:104C7000ADFF00BDF8B5DE4D0026E86AF64300281A
:104C800001D0314600E00121E962C817CA0B400497
:104C9000D84C1043226849046368114318432160CB
:104CA0006060A86A002800D10126AE62F017310CBE
:104CB00000040843226831046368114318432160EB
:104CC000606000200346FF22012100900132084667
:104CD000FDF710F8C8480078002800D00120002314
:104CE00003220090120219460120FDF703F8FFF796
:104CF0007AFF0020F8BDB5494870002800D108713E
:104D000070477CB5B14C0A3C2068002803D10120D3
:104D1000FFF752F820600020019000902068406A60
:104D20000121016021686A464B68486A01A99847D9
:104D30000198002808D0B1A0FBF704FEB3A0FBF750
:104D400001FE019D002407E0B4487CBD295DB4A0AC
:104D5000FBF7F8FD641CE4B200988442F6D3019C92
:104D6000A088FFF74BF80146AEA0FBF7EBFD60888B
:104D7000FFF744F80146AFA0FBF7E4FDE088FFF73A
:104D80003DF80146AEA0FBF7DDFD00990198FEF766
:104D9000E2FC00207CBD7CB50020019000908B4996
:104DA0000A390868406A0222026009686A464B684C
:104DB000486A01A99847019800280BD00099FEF78E
:104DC000CAFCA2A0FBF7BEFD90A0FBF7BBFD019DB6
:104DD000002407E091487CBD295D91A0FBF7B2FD5E
:104DE000641CE4B200988442F6D3019CA088FFF7CB
:104DF00005F801468BA0FBF7A5FD6088FEF7FEFFD6
:104E000001468CA0FBF79EFDE088FEF7F7FF014608
:104E10008BA0FBF797FD00207CBD70B56B4C012586
:104E2000607800280AD0A078002807D120790028CF
:104E300004D1FFF766FF002800D12571A078002873
:104E40000AD0E078002807D16079002804D1FFF764
:104E5000A2FF002800D1657170BD10B5002801D0F7
:104E600000F02EFF10BDF0B599B006460C46154671
:104E700000201890794803C8179116907848FEF7DB
:104E8000B0FF10A9888351484189491C418130688D
:104E9000744F030000F0B6FF07280545818181812A
:104EA00028004A48801F00F00EFE54226B4908314A
:104EB00001A801F07BF918A8019001A8FFF7ACFA4E
:104EC000397840182860032100F0F4FE20600028A3
:104ED0000CD039782A68521A411801A8FFF7EDFA68
:104EE000002807DA0020206019B0F0BD5EA0FBF7B3
:104EF00029FDF9E75A48FEF774FF10A9888328882E
:104F000080B2FEF76EFF10A9488330484089FEF753
:104F100068FF10A9C8833A7816A9206800F0E2FE5D
:104F2000E2E71C224D495C310FA801F03FF918A8B7
:104F30000F900FA8FFF78DFB3978401828600321E8
:104F400000F0B8FE206000280BD039782A68521A89
:104F500041180FA8FFF799FB002806DA002020600F
:104F6000C2E741A0FBF7EEFCBEE73D48801CFEF720
:104F700038FF10A98883288880B2FEF732FF10A975
:104F8000488312484089FEF72CFF10A9C8833A785D
:104F900016A9206800F0A6FEA6E739A07168FBF705
:104FA000D1FC3048B16840880818032100F082FE27
:104FB000074638006ED0FE203870CF207870012070
:104FC000FEF70FFF78803189264864E0C6070800A5
:104FD0005B4C0020D2240800D324080008D800002D
:104FE00048656C6C6F2C2057654368617421000024
:104FF0002890002020900020942508000D0A2061B0
:105000007574682073656E64212000000D0A2323E7
:1050100073656E6420646174613A200080990000B9
:10502000202578000D0A20434D4449443A20256448
:10503000000000000D0A206C656E3A202564000017
:105040000D0A205365713A20256400000D0A20697D
:105050006E69742073656E64212000005C6D002011
:10506000112700002C6E00200D0A4E6F7420656E13
:105070006F756768206D656D6F72792100000000A3
:105080000D0A206D736720746F2073656E64203A7B
:105090002025730046E04088081880B2FEF7A1FE84
:1050A000B8803068042841D0052844D0062847D06D
:1050B0000120FEF796FEF880FE484089FEF791FE3B
:1050C000388100207881FC48B268408871683818BF
:1050D00000F008FE00201490159018A81290139765
:1050E000F548B16840880818149012A8FFF7F0FB43
:1050F000F149097840182860032100F0DBFD2060A9
:10510000002822D0EC4E2A683178521A411812A891
:10511000FFF7F8FB00281CDA00202060E7A0FBF76F
:1051200011FCE1E6EEA0FBF70DFCDDE6F148FEF731
:1051300058FEF880C0E7F048FEF753FEF880BBE762
:10514000EE48FEF74EFEF880B6E7ED48FBF7FAFBB7
:10515000CAE6EC48FEF745FE10A98883288880B28D
:10516000FEF73FFE10A94883D2484089FEF739FE7A
:1051700010A9C883327816A9206800F0B3FD38461C
:1051800000F09EFDDE485C38FBF7DCFB276800265C
:1051900006E0DB48B95D4838FBF7D4FB761CF6B275
:1051A0002868B042F5D82468A088FEF727FE01469B
:1051B000D3484438FBF7C6FB6088FEF71FFE014664
:1051C000CF483438FBF7BEFBE088FEF717FE0146F8
:1051D000CB482838FBF7B6FBB648C188491CC180CC
:1051E00082E630B403460C46B348083000210588F7
:1051F0009D4204D14368204630BC11461847083010
:10520000491C0629F3D330BC7047F8B506460F4653
:105210000824BDA0FBF796FB002506E0B848715DA9
:105220004838FBF78FFB6D1CEDB2BD42F6D3B0885A
:10523000FEF7E4FD0146B2484438FBF783FB708873
:10524000FEF7DCFD0146AE483438FBF77BFBF08807
:10525000FEF7D4FD0146AA482838FBF773FBB08857
:10526000FEF7CCFDAD4A934D811A904217D009DC70
:10527000002814D0AA49401813D001283ED0022893
:1052800006D173E002296ED003296DD004296CD0B9
:10529000B088FEF7B3FD0146A2A0FBF753FB002048
:1052A000F8BD391B3019FFF791F90446A2A0FBF7AE
:1052B00049FB002C1AD0A7A0FBF744FB206800286C
:1052C00018D00168002913D0AAA0FBF73BFB206887
:1052D0000179002903D08168ABA0FBF733FB20687C
:1052E00005682046FFF7ACF92846F8BDAE48F8BD82
:1052F0000120A8702046FFF7A3F9D0E7ABA0FBF789
:1053000021FB391B3019FFF73DFB0446002C07D069
:10531000A068E1680C2909DB0178FE2906D102E0CA
:10532000A148801CF8BD4178FE2903D0A7A0FBF757
:1053300009FB0AE0C088FEF761FDAE49884204D14E
:10534000A168ADA00C31FBF7FDFA206800680028C9
:1053500005D02046FFF750FB20680068F8BD2046C6
:10536000FFF74AFB9BE749E039E24DE2A8490020FC
:105370000870A8490870A8A0FBF7E4FA391B301997
:10538000FFF7C7F90446200019D0AAA0FBF7DAFA04
:105390002068002829D00168002913D075A0FBF7E8
:1053A000D1FA20680179002903D0816876A0FBF743
:1053B000C9FA2046FFF783FA20680068F8BD7A48EA
:1053C000401CF8BD207B00280BD03B490422091D5E
:1053D0000020FEF70BFE2169884204D10120E8700D
:1053E00001E00120E870012028702046FFF767FAED
:1053F0000A223621974800F059FB50E7391B301933
:10540000FFF703FB044694A0FBF79CFA002C12D094
:1054100099A0FBF797FA206800280FD0A2A0FBF70D
:1054200091FAACA0A168FBF78DFAB2A0FBF78AFA5B
:10543000676800260DE05C48001DF8BDB5A0FBF7CD
:1054400081FAEEE72E48B95D4838FBF77BFA761C07
:10545000F6B2A068B042F5DC207B002806D0B7A0E9
:10546000FBF770FAE189BCA0FBF76CFA6668BEA096
:105470003178FBF767FA224871784838FBF762FA0F
:105480007088FEF7BBFC0146BCA0FBF75BFAB08856
:10549000FEF7B4FC0146BDA0FBF754FAF088FEF716
:1054A000ADFC0146BEA0FBF74DFA7089FEF7A6FCE5
:1054B00001467DE1C60708002C6E00200D0A6570CC
:1054C000625F7061636B5F73656E645F646174617A
:1054D0005F72657175657374206572726F722100F9
:1054E0000D0A4E6F20656E6F756768206D656D6F74
:1054F0007279210001F2000081F00000812000009B
:1055000068500020122700000D0A232352656365AE
:105510006976656420646174613A20002F7500002B
:10552000DFB1FFFF0D0A2021214552524F52204387
:105530004D4449443A2564000D0A40405265636574
:105540006976656420276175746852657370270DEC
:105550000A0000000D0A20756E7061636B202761E0
:105560007574685265737027207375636365737310
:10557000210D0A000D0A206572726F7220636F643C
:10558000653A2564000000000D0A20626173655FC2
:10559000726573706F6E7365206572726F72206DC5
:1055A00073673A2573000000909900000D0A40408F
:1055B0005265636569766564202773656E6444612E
:1055C000746152657370270D0A0000000D0A207285
:1055D00065636569766564206D73673A206E6F2038
:1055E0006D65737361676520636F6E74656E74219A
:1055F000200D0A00011000000D0A20726563656924
:10560000766564206D73673A2025730D0A000000EB
:10561000D2240800D32408000D0A40405265636577
:10562000697665642027696E697452657370270D09
:105630000A0000000D0A20756E7061636B202769F7
:105640006E69745265737027207375636365737335
:10565000210000000AD800000D0A40405265636531
:10566000697665642027726563764461746150755C
:105670007368270D0A0000000D0A20756E706163C3
:105680006B2074686520277265637644617461508D
:1056900075736827207375636365737366756C6CC7
:1056A0007921200D0A0000000D0A207265637644FE
:1056B0006174507573682D3E626173655F707573B8
:1056C00068206973206E6F74204E554C4C21200D5C
:1056D0000A0000000D0A20726563764461745075FB
:1056E00073682D3E646174612E6C656E3A20257876
:1056F000200D0A000D0A20726563764461745075AE
:1057000073682D3E646174612E646174613A202077
:105710000D0A00000D0A20726563764461745075AD
:1057200073682D3E626173655F707573682069737D
:10573000204E554C4C21200D0A0000000D0A20720D
:105740006563764461745075736820686173207472
:1057500079706521200D0A000D0A20747970653A70
:105760002025640D0A0000000D0A206D6167696341
:10577000436F64653A202578000000000D0A20760A
:10578000657273696F6E3A20257800000D0A2074E7
:105790006F74616C4C656E6774683A202578000000
:1057A0000D0A20636D6469643A20257800000000CA
:1057B00054A0FBF7C7F8B088FEF720FB07460C3F64
:1057C000F088FEF71BFB61683A460C31FFF709FDD4
:1057D0002046FFF761F92889401C28815FE5287879
:1057E00000280DD0002028704BA0FBF7ABF8391B28
:1057F0003019FFF75CF9002804D0FFF79BF94EE55C
:105800000120F0E74C48F8BD4CA0FBF79BF8391B92
:105810003019FFF798F9002802D0FFF7CAF93EE5E2
:105820004548401CF8BD10B5002802D04DA0FBF73C
:1058300089F810BD1CB5002201920092514B1A68E4
:10584000526A032414601A68536A9960516A486066
:105850005368506A6A4601A998470198002804D005
:105860000099FDF778FF00201CBD334815381CBD9A
:10587000704710B544A0FBF765F800210120FCF744
:105880001BFA45490120087010BD10B543A0FBF775
:1058900059F800210120FCF7F1F93F490020087078
:1058A00010BD0EB500F00AF9010A6A461172507275
:1058B00002A801900220009032490868406A06223E
:1058C00002600968486A009A8260486A019A4260E8
:1058D0004B68486A6A4601A998470198002802D097
:1058E0000099FDF738FF0EBD7047704710B50021D5
:1058F0000846FFF7D6FF0A2236212C4800F0D6F8DA
:1059000010BD00000D0A206572726F72436F6465EE
:105910003A202578000000000D0A4040526563657A
:10592000697665642027737769746368566965775B
:1059300050757368270D0A00959900000D0A4040C4
:105940005265636569766564202773776974636857
:105950004261636B67726F756450757368270D0AD7
:10596000000000000D0A21206572726F723A206DEE
:1059700070626C6564656D6F322072657365746505
:1059800064000000BC0708000D0A206C6967687499
:10599000206F6E2121200000942508000D0A206C44
:1059A00069676874206F6666212120000AD80000AC
:1059B00010B5B4B00446204600F0FEFB96280BD28A
:1059C0000BA30EA210A102A8009400F001FC02A8F3
:1059D000FAF7B8FF34B010BDC722214602A800F084
:1059E00077F802A8FAF7AEFF0CA0FAF7ABFFF1E7E1
:1059F00031393A32393A34330000000041756720BA
:105A000020352032303136004552523A2025732C51
:105A10002025732C2025730D0A0000000D0A0000BC
:105A200013B582B004466846007B06280AD00FA052
:105A3000FFF7BEFF1C484168491C41600020C0437D
:105A400004B010BD0020009001906A4603A9012017
:105A500000F094FB00216A460520431AD35C63548E
:105A6000491C0629F9DB0020EAE70000564D4441B5
:105A70003A2046756E63206968755F6D61635F618A
:105A800064645F67657420696E70757420706172FC
:105A9000616D65746572206C656E206D7573742020
:105AA00062652036210000005008080010B5FDF79F
:105AB0000CFC10BD10B5FCF743FA10BD10B5FFF794
:105AC000F9FF80B210BD10B50621FFF7A9FF10BD88
:105AD00010B5044605E00B780370401C002B00D085
:105AE000491C521EF7D2204610BD03460A780270A8
:105AF000401C491C002AF9D118467047024670B56F
:105B00004A40D30FDB0740002DD04A002AD0010EB7
:105B1000140E000212020919400A520A8418E50103
:105B200004465443000A120A2E045043A419421991
:105B3000200CC543AA18120C0125AD03521C5219A2
:105B400012047F39240400D0521C104301D44000B9
:105B5000491EC2B20C06C0092018401C4008802A09
:105B600002D003E0002070BD40084000002900DAA8
:105B70000020184370BD10B500229623114600F096
:105B80004DF810BD410040020122400AD205090E25
:105B900080187F2901DA00207047962903DC9622BD
:105BA000511AC8407047963988407047F0B51FB405
:105BB0000646002082B005464024019100901BE07B
:105BC000019922460F46304600F0FCFA049A059BE4
:105BD000801A994110D310461946224600F032FA35
:105BE000361A8F410197224601200021009F00F0C4
